:020000040801F1
:1030000000800020BD700108AD9E0108AF9E010840
:10301000B19E0108B39E0108B59E010800000000A2
:10302000000000000000000000000000B79E010842
:10303000B99E010800000000256C01084D6E0108D2
:10304000B9700108B9700108B9700108B9700108B8
:10305000B9700108B9700108B9700108B9700108A8
:10306000356C0108B9700108B9700108B970010820
:10307000B9700108B9700108B9700108B970010888
:10308000B9700108B9700108B9700108B970010878
:10309000B9700108B9700108B9700108A16C010884
:1030A000B9700108B9700108B9700108B970010858
:1030B000B9700108B9700108B9700108B970010848
:1030C000B9700108B9700108B9700108B970010838
:1030D000B9700108CD640108B9700108B970010820
:1030E000ED3D0108B9700108B9700108B970010817
:1030F000B9700108B9700108B9700108B970010808
:10310000B9700108B9700108B9700108B9700108F7
:10311000B9700108B9700108B9700108B9700108E7
:10312000B9700108B9700108B9700108B9700108D7
:10313000B9700108B9700108B9700108B9700108C7
:10314000B9700108B9700108B9700108296C01084B
:10315000B9700108B9700108B9700108B9700108A7
:10316000B9700108B9700108B9700108B970010897
:10317000B9700108B9700108B970010800000000B9
:10318000B9700108B97001082DE9F04FA74B002272
:10319000DA60AFB05A6082469A6072B6A448A54918
:1031A000A54CA64D0860A56062B6A54BA54EF61AC3
:1031B000320EC6F3074002920390C6F3072801209F
:1031C0000024A14D00F09AFE03F096FC2146204613
:1031D0002C7002F0BBFD012003F05EFB9B490B88C5
:1031E000052B00F0C2809A4F3868796857F8082F8D
:1031F0000AAE03C639793260317101270AA9204627
:103200002F7002F0A3FD4FF4FA7004F0BDF8914D59
:103210009148924903F020FF2246914991482F702E
:1032200007F01EFE90498F4807F037FE8F498D4802
:1032300008F02EFA8B4807F037FE07F0E7FC00F0A5
:1032400051FE8B480468A2050BD5036823F4007671
:1032500006600020014602F079FD01200AA902F073
:1032600075FD83490A68970703D50F6827F00205A3
:103270000D600C687E48660306D5036823F480263B
:103280000660012003F042FC79490A6855050CD517
:103290000F68784827F480650D60046847F22F5363
:1032A0009C4202D8012003F031FC734E96F82110A5
:1032B00000292FD0012003F029FC72B6002786F8E0
:1032C000217062B600BF00BF6C480278FE2A0FD1A1
:1032D0004578FE2D0CD18478FE2C09D1C378FE2BC5
:1032E00006D1902502210570477002F08FFF2FE074
:1032F0006148468C6148B1B203F078FB01465F48F3
:1033000002F084FF02F02CFC20B14B494F6847F0DB
:1033100080524A600020014607F09CFD00288ED0B4
:10332000564D012003F0F2FB2C78FE2C12D16B7865
:10333000FE2B0FD1A878FE280CD1EE78FE2E09D1F5
:1033400090220024A02002212A706C7007F082FDD8
:1033500003F0C0FB4A4949480F88B9B203F046FB65
:103360000146202007F076FD69E74648464A0125D8
:10337000BAF5FA6F2CBF0221002114700570447059
:103380008570C170042103F041F94048404B05604D
:103390005C603E4C2268022A05D0032A00F0CA82F3
:1033A000012AF6D1C6E203F0C7F8ADF81200BDF865
:1033B00012108AB2022A24D9324C4FF49671204658
:1033C00003F0EEF8ADF812006078A37843EA00212C
:1033D0000120069103F09AFB2278662A11D103346A
:1033E000069B581E069023B114F8010B01F024F936
:1033F000F6E724480D21017003214370837003F028
:1034000005F900F06FFD1A4B1A68002AC1D000249C
:1034100009941868840241D51E4B1F4C1968206816
:1034200003F040F84FF400106EE000BF04080020E5
:10343000006CDC02F806002000ED00E0003001081E
:1034400000000008B0FF0308501000209C06002078
:10345000A8570208280C0020165802082258020813
:10346000645A02082C0E0020BC590208905A020827
:10347000F40600204414002054100020FC06002014
:103480002C1400209912002051100020240C002040
:1034900034140020941200201C0C00201A681968B3
:1034A00011F4801435D0A84C12252570A74D296839
:1034B000C1F3072262702B68D8B2A07003212046A6
:1034C00003F0A4F8696871B92A6802980399131F78
:1034D0002B60F2B2207061702046042184F80280D3
:1034E000E27003F093F8994C236833B1626898480E
:1034F0002168801889B203F089F8944C63682268C7
:10350000D11861604FF480100990924901220A603D
:1035100004E21A6812F480720CD08B4811230370F5
:103520000421447001248470C47003F06FF84FF4D8
:1035300080720FE0186810F400710DD082481124D9
:1035400004700421012442708470C27003F05EF89C
:103550004FF400720992C6E11C6814F004023BD0DB
:10356000794C7D4A0320207092F83030D81C030A31
:10357000637092F83020D01CC3B2A37005910599F6
:103580001F2910D8059C754A734B105DD98D8CB2DC
:10359000A04204D1059B6C4CD9B2E17003E0059ABE
:1035A000501C0590EBE76C4C674894F830300022D3
:1035B000027194F830300621437103F027F894F833
:1035C000301004F1310003F021F862490120086055
:1035D00002F04AFD042073E1186800071CD505922B
:1035E000059A1F2A10D8059C5C495B4B085D5A8DD3
:1035F00094B2A04204D1059B594CDAB2227003E088
:103600000599481C0590EBE752484F4B03210422D3
:1036100001601A70082053E11968490601D540205D
:103620004EE11C68220601D5802049E11B685C033D
:1036300020D54C48016847F22F53994203D9012005
:1036400003F064FA13E04048474905220024027061
:103650004470012484700B68B3F5FA6F34BF002303
:1036600001230421C37002F0D1FF3A4804604FF4F3
:10367000802025E13D4B1A68500518D54FF4806134
:10368000384A0991146847F22F539C4200F23F8157
:10369000374801880AB2079244882B4A23B2022194
:1036A0004FF6FF740893D1700480448016E01868C8
:1036B00010F0020129D002202A4909900A6847F235
:1036C0002F539A4200F22381294C208801B207919E
:1036D00062881D4813B201240893C4701A480C2351
:1036E00000210522037041708270079CC4F30723F8
:1036F00003710799CAB24271089CC4F3072383710E
:103700000899CAB2C2710821FEE01C6814F4005482
:103710000AD00D480F244FF400520992047001247E
:1037200041708470C470DBE01A6812F4004121D04B
:1037300005484FF400410F230991037004214470A0
:1037400001248470C170CCE0991200203414002050
:1037500000000008240C0020541000203408002031
:10376000981200204414002004080020F4060020D1
:10377000A4060020186810F480340AD04FF480307A
:103780000990AE480F240470012441708470082110
:10379000A5E01A6812F0200112D0A84820251023B5
:1037A0000B22099506210370082544708270C470AD
:1037B00001240471457102F029FFA148294690E0D7
:1037C000186810F0100435D09E4C6368002B75D03B
:1037D0000B469C4C0127616807FA03F50D42DAB2EB
:1037E00024D096481021017000214170032181707E
:1037F00002215B1842F08002C27004EB8302017167
:103800005168CBB20621437102F000FF8E48076079
:1038100072B6626822EA050565606468002C40F0B3
:1038200084808A48016821F010047DE00133072B71
:10383000CFD143E01A6812F4003243D0814A906835
:1038400000283BD07F4D0127AB6807FA04F21A42EB
:10385000E0B230D004F10A0155F821305FFA83FB61
:10386000764B102119700BF103014FEA112EC9B2EA
:1038700083F801E09970D870042018710621184669
:1038800083F805B0019202F0C1FE05EB84104430CC
:10389000594602F0BBFE6C4A176072B6AC68019BD9
:1038A00024EA0301A960A86800283ED1674802689D
:1038B00022F4003438E00134072CC3D14FF4003037
:1038C00009902BE01C68610410D54FF480400990EA
:1038D0005A480F2301240370022142708470C17082
:1038E000042102F093FE5848046017E01B681B0592
:1038F0007FF54FAD51484FF4006100240E2209912D
:10390000027003214470847002F080FEFDE572B6FF
:103910004E4B1868099C20EA0400D4E172B64B486B
:103920000468099B24EA0304046062B6012003F0E2
:10393000EDF82EE502F000FEADF81200BDF8121011
:1039400088B202287FF625AD3C4C4FF49671204694
:1039500002F026FEADF812006278A378012043EA57
:103960000221069103F0D2F820784F2800F0088158
:1039700011D8442823D006D8312800F0F18132280C
:103980007FF407AD7EE14B2855D04E2866D04628FF
:103990007FF4FFAC13E4642838D009D8602800F025
:1039A000E280632800F0CE8050287FF4F2AC38E14A
:1039B000662863D075D367287FF4EBAC87E1E278A3
:1039C000DFF894B0101C9BF8003018BF012098421B
:1039D0003FF4DFACE57805F002001D4D002102F058
:1039E000B5F900212022284608F05AF819490A8919
:1039F000D3B26B704889411C01F0FF02AA70E478D1
:103A0000231C18BF01238BF80030C2E40699032958
:103A100008D9E3780E48C05C069AD31EA11DDAB21D
:103A200002F010FB054800210B24012204704170B4
:103A30008270042132E003F0C7F800BF9912002021
:103A4000D80B0020280C0020240C0020F4060020B5
:103A5000340800205410002051100020069902293B
:103A60007FF497ACE2782379A54843EA0224046006
:103A700001680C1C18BF0124A2496EE10334069BA7
:103A8000581E069023B114F8010B00F0D5FDF6E79F
:103A90009D480D22027003214370837002F0B6FD31
:103AA00077E406981B287FF674AC069C4C450BD136
:103AB000069B9649802B98BF069A0EA888BF802245
:103AC00007F024FE002832D0069C9049802C98BF35
:103AD000069A0EA888BF802207F074FE069C069AFC
:103AE0001C3A0A2A1BD98A488A490B2207F00EFE83
:103AF0000546A0B988490B786BB18848D0F8349254
:103B0000D0F83422501C08F0E5F809F1010182B226
:103B10002B460EA809E00EA88149192205E0069B54
:103B20007B491C3B9AB20EA8002301F0A1F876480D
:103B300000210D23037041708170032102F066FDA6
:103B4000A14626E4774D286803287FF422AC21465D
:103B5000754A107811F8044B231FDAB202F072FA9A
:103B60000221296015E4069802287FF412ACE3785C
:103B7000227952EA03227FF40CAC6A4C206008E4FC
:103B8000E078431E032B3FF604ACDFE803F0020E9F
:103B90001319664C0020C4F81402204606F06AFF90
:103BA000204606F08FFFFFF7F4BB604806F091FF58
:103BB000FFF7EFBB21795D4806F0CFFFFFF7E9BBC8
:103BC000002451480694069C01798C42BFF4E1AB75
:103BD000069B032253439C1D015D39B906994A4354
:103BE0000532815C514806F093FF17E0069B5A436B
:103BF0000632805C069B441EE1B203299ABF4C4A00
:103C0000525CFF22032043435C1D3F4B195D069C21
:103C1000604307301B5C454806F062FF069B5C1C56
:103C2000CFE72079302821D00DD810281ED02028A9
:103C30007FF4AFAB344A3D48D1785379063206F071
:103C400093FFFFF7A6BB402809D080287FF4A1ABE3
:103C50002D493648C97806F069FFFFF79ABB2A4C10
:103C60003248E17806F05BFFFFF793BB264B2F4805
:103C7000D9785A79402A94BF5A79402206F084FFB5
:103C8000FFF787BB65792B4C0DB1002262601E4B9C
:103C900064682949DD78294A18796418141B40EAB8
:103CA0000520844204D2234C60680918531A03E0AB
:103CB000D9781A7942EA01231E4A136072B6204B62
:103CC0001C6844F48010186062B6FFF762BB1320D2
:103CD000E17822792070002303206370A070069899
:103CE000022833D101236371164C216016490A6002
:103CF00072B61348026842F40013036062B626E00D
:103D00008C12002040140020991200209C120020E8
:103D1000B812002048590208511000205410002009
:103D2000BC570208240C0020981200202C0E002002
:103D3000D65702083414002000000008F8FF0308DA
:103D4000F40600201C0C0020941200206371062150
:103D5000054802F05BFC054902240C60FFF719BB23
:103D60002FB0BDE8F08F00BF99120020240C002076
:103D70008007054B48BF41F48071D9609A6892076B
:103D8000FCD50020704700BF00380040F8B507465A
:103D90000D4601202A2116461C46FFF7E9FF390A85
:103DA0000220FFF7E5FFF9B20220FFF7E1FF310A39
:103DB0000220FFF7DDFFF1B20220FFF7D9FF2B2130
:103DC0000120FFF7D5FF290A0220FFF7D1FFE9B252
:103DD0000220FFF7CDFF210A0220FFF7C9FF0220D2
:103DE000E1B2BDE8F840FFF7C3BF000030B58BB0CB
:103DF0004FF4806300934C210823354802AA04F055
:103E0000C3FB9DF8080052285BD19DF80910FF29DB
:103E10000ED13048028811B2002952DB438818B213
:103E200000284EDB72B62C48026842F4806346E0FC
:103E30009DF80B309DF80A4001F00F0501F0F002EB
:103E400043EA05219DF80C5044EA02109DF80D202C
:103E500005F0F00442EA041202F400631CB20CB153
:103E600042F470429DF80E3005F00F0543EA052339
:103E700003F4006425B20DB143F47043174C256878
:103E80004DB102B93BB1C918144B8018002480B25F
:103E900089B21C6001E0012222600F2250430524F8
:103EA00080116143C0F5F0730A4CC1F34F119AB20F
:103EB0002180628072B60848016841F00203036005
:103EC00062B6074B4FF4006159610BB030BD00BFC3
:103ED00048000020A4060020F40600202400002052
:103EE00000040140044B5A69120504D54FF40060E8
:103EF0005861FFF77BBF7047000401402DE9F04F88
:103F0000BC4BBD49BD4C4FF6FF72064600201A80DF
:103F100008608DB05A8020602021B9484FF4E072CB
:103F200007F0BEFD002E40F01A82B64DDFF8E482A5
:103F3000EF6C47F00203EB64EA6C02F002000390BE
:103F4000039AE96C41F00404EC64EF6C07F004039D
:103F50000493049AAA6DAC4F42F48040A865AD6DFD
:103F6000099605F480414FF420444FF0050905916E
:103F70004FF0030A07943846022407A90125059B40
:103F80000894CDF828A0CDF82C9004F009F94FF44E
:103F90008043384607A90793089509960A9604F0C6
:103FA000FFF87A6942F48040786107A94046079497
:103FB000089509960A9604F0F3F8D8F81410934877
:103FC000934A21F002034FF482714FF00A0CC8F8B3
:103FD00014304FF0080B41604FF400634FF4007150
:103FE000C0F82CC00260C3608161866006614661D2
:103FF000C6610662466286620663C0F834B0CDF8D8
:1040000000C0019205F03FF90198026842F04003B8
:104010000360D8F8141021433220C8F8141003F0BC
:10402000B3F9786920F480427A6111212120FFF7E9
:104030009FFE962003F0A8F9B9212846FFF798FEC5
:10404000FF212046FFF794FE83212046FFF790FED4
:1040500057212220FFF78CFE284603F095F9B12165
:104060002846FFF785FE31462046FFF781FE1221E4
:104070002046FFF77DFE12212046FFF779FE122130
:104080002046FFF775FEC3212046FFF771FE44214D
:104090002220FFF76DFE284603F076F9B42128466A
:1040A000FFF766FE21462046FFF762FE40212046CC
:1040B000FFF75EFE31462046FFF75AFE2A212046D2
:1040C000FFF756FE2A212046FFF752FE2021204608
:1040D000FFF74EFE91212220FFF74AFE284603F00B
:1040E00053F9B6212846FFF743FE38212220FFF777
:1040F0003FFE284603F048F9B0212846FFF738FE76
:1041000068212046FFF734FEE3212846FFF730FE02
:104110002F212046FFF72CFE1F212046FFF728FE07
:10412000B5212846FFF724FE29462046FFF720FE4A
:1041300029462046FFF71CFE67212046FFF718FEA0
:10414000C0212846FFF714FE70212046FFF710FE1D
:1041500070212046FFF70CFE29462046FFF708FE97
:104160003C212046FFF704FEC8212046FFF700FE51
:1041700059462220FFF7FCFD284603F005F9C2212D
:104180002846FFF7F5FD31462046FFF7F1FD594679
:104190002046FFF7EDFD04212220FFF7E9FD284628
:1041A00003F0F2F8CC212846FFF7E2FD4946222031
:1041B000FFF7DEFD284603F0E7F8E0212846FFF789
:1041C000D7FD29462046FFF7D3FD21462046FFF7BD
:1041D000CFFD51462046FFF7CBFD49462046FFF76D
:1041E000C7FD0E212046FFF7C3FD22212046FFF721
:1041F000BFFD11E0A4060020480200204402002078
:10420000840000200010024000040048C813002071
:10421000003800400008004832212046FFF7A8FD82
:104220003B212046FFF7A4FD5C212046FFF7A0FDBF
:1042300054212046FFF79CFD4C212046FFF798FDB6
:1042400041212046FFF794FD3D212046FFF790FDD8
:1042500037212046FFF78CFD31212046FFF788FDEE
:1042600021212046FFF784FD29462046FFF780FDE7
:1042700021462046FFF77CFD51462046FFF778FD9A
:1042800049462046FFF774FD0E212046FFF770FDDA
:1042900022212046FFF76CFD32212046FFF768FD02
:1042A0003B212046FFF764FD5C212046FFF760FDBF
:1042B00054212046FFF75CFD4C212046FFF758FDB6
:1042C00041212046FFF754FD3D212046FFF750FDD8
:1042D00037212046FFF74CFD31212046FFF748FDEE
:1042E00021212046FFF744FD31462046FFF740FDDF
:1042F00029462046FFF73CFD284603F045F83A21C1
:104300002846FFF735FD55212046FFF731FD3621C0
:104310002846FFF72DFD31462046FFF729FDB02145
:104320002846FFF725FD99212046FFF721FD294664
:104330002046FFF71DFD23212846FFF719FD2921FF
:104340002120FFF715FDDDF800C0604603F01CF8E2
:10435000344800F035FF21202221FFF709FD324DBE
:104360004FF48066012707962846002607A908977C
:1043700009960A9603F014FF2C4B09974FF400643A
:10438000284607A90893079403F00AFF4FF44071E9
:104390001220032207910890042425480A9207A9B5
:1043A0000B94099703F0FCFE224B996D41F4001029
:1043B00098659A6D204902F4001406941F4C069BE0
:1043C0001F4BA660204684E80A00E760266166610C
:1043D000A661E661266204F08EF83146204604F0BC
:1043E0003FF96B6923F480616961C82002F0CCFF5A
:1043F000686940F480626A610A2002F0C5FF6B6957
:1044000023F4806169610A2002F0BEFF68690D4BE8
:1044100040F480624FF480716A61C3F884110DB07A
:10442000BDE8F08FF9F9F9000008004800002110FC
:1044300000040048001002400054004048000020E2
:104440009129700000E100E010B51D4B9AB0186092
:104450003C22002104460BA807F022FB19494FF02B
:1044600080400B900BA80E9105F04AF90021102214
:10447000684607F015FB4FF4805269460BA800927E
:1044800005F06CFA0BA805F023F900211C2204A802
:1044900007F006FB042140F6C41060234443089152
:1044A000002204A90BA80493059405F085FB0BA832
:1044B00005F09EF80BA8002105F0F0FA1AB010BD27
:1044C0002000002090D003002DE9F84FDDF8308067
:1044D0000E9C0B9F334E4FF0010A81468B460AFA21
:1044E00008F00A9900F1FF3A00258D421BD00437ED
:1044F0000236102D17D057F8040CC0F3423E000CC2
:1045000000F0F8004EEA000006F8020C57F8040C20
:10451000C0F3C40C400900F0E0004CEA000006F8CB
:10452000010C0135E1E709F1FF310BF1FF355218BC
:104530005B1996B29DB232462B4648465946FFF764
:1045400025FC2C210120FFF713FC48465946324632
:104550002B46FFF71BFC01202C21FFF709FCF4B1CF
:104560000D9810F8017B00250D9027FA05F606EA54
:104570000A010C4E4FEA410B16F811105E4402205E
:10458000FFF7F6FB454402207178FFF7F1FB072D9A
:10459000C8EB0404E3D8002CE7D1BDE8F88FBDE8F0
:1045A000F88F00BF280000202DE9F84F15460E4671
:1045B000BDF828804FEA104A1F4605F1FF39C0F3C5
:1045C00042330AF0F80106F1FF3B43EA010A4409CD
:1045D00007EB0B0308EB0901C0F3C4021FFA83FBCE
:1045E0001FFA81F904F0E00029464B4642EA000434
:1045F0005A463046FFF7CAFB2C210120FFF7B8FBD3
:10460000294630465A464B46FFF7C0FB01202C2175
:10461000FFF7AEFB08FB07F70025BD4209D0514666
:104620000220FFF7A5FB02202146FFF7A1FB013581
:10463000F3E7BDE8F88F000010B5264B1A6886B086
:1046400004467AB1244900200860186023484FF4DA
:10465000C07200F1400107F057F9214820214022A3
:1046600007F01EFA0A2C17D11A4B1C4A01201860B9
:104670004FF0390E40F2A7104FF4A0738DE80940B7
:104680004FF4E07100200392049105900146154A11
:10469000034600F0CBF91AE00D2C07D11048202179
:1046A000402206B0BDE8104007F0FAB9A4F120039B
:1046B0005F2B0CD8084A094910680B1801303E28B6
:1046C00083F88041106002D9024901220A6006B0D5
:1046D00010BD00BF440200204802002084000020DA
:1046E00004020020F9F9F90038B504464518AC4237
:1046F00004D014F8010BFFF79FFFF8E738BD000066
:104700000FB42DE9F04F87B0109D002D00F05381BC
:1047100011AB01932878002800F04D8129464E1BEB
:104720000C4611F8012B252A08D128463146FFF7FF
:10473000DBFF2578252D04D02546EBE7002AEED1B6
:10474000F3E70027019B601C4FF0200CB846B946E8
:104750004FF00A0B3C46054615F8012B632A3ED064
:104760001FD8392A14D8302A2FD22A2A5CD004D84C
:10477000252A40F01A81019315E12D2A04D1002742
:1047800000E013462846E6E72E2A40F00E8139E085
:10479000482A52D0582A40F0088101934FF001086E
:1047A000B4E0702A0FD005D8642A20D0682A40F0DF
:1047B000FC8044E0752A00F0A380782A03D0732A95
:1047C00040F0F3803DE00193A0E003D1002C08BF4E
:1047D0004FF0300C0A2101FB0424303CD2E7191DB4
:1047E00006A81B68019140F8183D6846DBE0186890
:1047F0001E1D0028019680F2868047420097012006
:104800000A238AE041782A2940F0CF808278732AEF
:1048100004D0482A02D0682A40F0C780D3F800901C
:10482000851C04330127ADE74078732840F0BD8034
:10483000D3F8009002270433A4E74FF001084FF0AB
:10484000100B1A1DD3F800A0032F25D801A050F893
:1048500027F000BF6548010873480108794801083E
:1048600083470108019200261AF80610A9B1013603
:10487000FAE701924E4610E09AF8000001920028F3
:1048800040F094804E480121FFF72EFF4B4609F17E
:10489000FF39002BF6D126E00192BBF1100F04D0B6
:1048A00050463146FFF720FF1DE00024B4423FF49C
:1048B00031AF1AF804703A0907F00F07B8F1000F8A
:1048C00005D0B8F1000F0CD0DFF8FC9001E0DFF864
:1048D000F49019F80200FFF7AFFE19F80700FFF790
:1048E000ABFE0134E2E7B4427FF614AFA41B002C08
:1048F0003FF410AF32480121FFF7F6FE013CF6E726
:104900001E1D186801960090002079E7019B1F6822
:10491000191D0191009700201023009F012603FB21
:1049200006F2BA4201D938B911E0B2FBF3F1B14253
:10493000F9D1013C1646F2E7013CBCF1300F05D13C
:104940002D228DF808200020012101E00120002106
:10495000A21E0D2A0DD804F1FF3E00220DF1080A17
:104960000AEB010909F802C001327245F6D10919B2
:10497000013928B106A842182D2002F8100C013187
:1049800002A8AEB1B7FBF6F2B2FBF3F403FB1422BC
:10499000B8F1000F01D10B4C00E00B4C125DB6FBDF
:1049A000F3F64254EBE7012102E0019307480521A9
:1049B000FFF79AFEAEE607B0BDE8F04F04B07047CF
:1049C0000758020834BD010845BD010856BD01085D
:1049D0000005000D08282DE9F04123D8124C54F8A9
:1049E0002050FDB1002495F802C02046E6B2B34243
:1049F00013D0165DAF88BE4211D3B5F80680464588
:104A00000DD8F61BAF6817F83660871901348F424E
:104A100008DC6644801980B2E8E7BDE8F081002038
:104A2000BDE8F081BDE8F08140FA01082DE9F04FC2
:104A30008DB000051F464FEA105ABDF86830BDF82A
:104A400058400993BAF1080F0A920B9160D8324985
:104A500051F82A30002B5BD0BDF85C20BDF860B067
:104A600093F802C0DDF86490D519AEB208960BEB4E
:104A700004001E781FFA80FB3D460999199BCA184D
:104A800090B21FFA89F188423ED0234A19F8013BBF
:104A900052F82A2091888B4202D3D088834209D9C8
:104AA000093B012B30D8A419A4B2A3195B452BDC18
:104AB0003D46E2E75B1A926812F8338002EBC301CD
:104AC000089A486805EB0803934205DDA419A4B2CF
:104AD000A119594518DC3D4602230AAA0121039079
:104AE00018FB06F00093019202910490424628467A
:104AF00021463346CDF81CC0FFF7E6FCDDF81CC0AC
:104B0000E0444544ADB2B8E745EA04442046FFE737
:104B10000DB0BDE8F08F00BF40FA01082DE9F74F56
:104B200003F1FF3A9DF8309006460F4690469B46AB
:104B30001FFA8AFA1C46002519F0010F09D001233B
:104B400004EB080200933046394692B22B46FFF739
:104B50002BFD09F00200C1B249B1012305EB0802A7
:104B600000933046394692B22346FFF71DFD09F007
:104B70000400C1B251B10123791B04EB0802009378
:104B8000304689B292B22B46FFF70EFD09F00800BD
:104B9000C1B251B10123391B05EB08020093304625
:104BA00089B292B22346FFF7FFFC09F01000C1B2B0
:104BB00049B10123C4EB080200933046394692B252
:104BC0002B46FFF7F1FC09F02000C1B249B10123E7
:104BD000C5EB080200933046394692B22346FFF7F0
:104BE000E3FC09F04000C1B251B10123791BC4EBD1
:104BF00008020093304689B292B22B46FFF7D4FCEC
:104C000019F0800F0AD00120391BC5EB0802009073
:104C100089B2304692B22346FFF7C6FC0FFA8AF3F8
:104C2000B3EB450F06DBAAEB450202F1FF301FFA9A
:104C300080FA15E0C4EB0B01B3EB410F08DA0AEB85
:104C4000440A0AF1FF33611E1FFA83FA8CB209E0AD
:104C5000621B501E0AEB400C013C1FFA8CFAA4B2F6
:104C60000135ADB2A5427FF667AFBDE8FE8F00000B
:104C70002DE9F04F90F800B089B0044615469946EA
:104C80002BF0800B0E4600294CD0002A4DD0BBF1F2
:104C9000050F00F01682B0F818A00AF44043B3F5EF
:104CA000804F10D0B3F5004F18D1C788CDF80090D1
:104CB000394650463246EBB2FFF78AFEC0F34F004A
:104CC000C0EB57070BE0C788CDF800903946504637
:104CD0003246EBB2FFF77CFE3F1A00E000270AF4F1
:104CE0004051B1F5805F11D0B1F5005F20D14FEA9E
:104CF0000A5A4FEA1A5A574A238952F82A0090F85A
:104D000001804FEA5801C1EB530813E04FEA0A5300
:104D10004FEA135A4F48228950F82A104B78C3EBB8
:104D2000020807E088460F4604E09046174601E077
:104D30004FF00008BBF1060F00F23782DFE81BF0EE
:104D40002D02190007001900BA01C1011602207BCB
:104D5000012807D120896188A288E38800906069D2
:104D6000FFF722FC002E40F07681A07A002800F0A8
:104D70001C82237BE0886188A288012BE37A6FF094
:104D8000010A19440AFB03032089009064D060697A
:104D900089B29BB2FFF708FCE37A2089A288618878
:104DA0000AFB030080B29A180090606992B2FFF784
:104DB000FBFBE1886288E37A8818C11A2089A288FF
:104DC0000AFB030080B29A180090606989B292B21F
:104DD000FFF7EAFBE37AE0886188A28859180AFBAA
:104DE0000303A07A0090206989B29BB2FFF7DCFB35
:104DF000E37A6288B4F808C0B4F806E0A07A99189B
:104E0000A288009062440AFB03E3121A89B2206967
:104E100092B29BB2FFF7C8FBE07AA288B4F808C050
:104E20006188A37A82180AFB00C080B200902069D2
:104E300092B2FFF7B9FB6288E188E07AB4F808E043
:104E4000A37A8918A28882180AFB00E0C91A80B2E6
:104E500020E000BF40FA0108206989B29BB2FFF749
:104E6000A3FBE37A2089A28861880AFB030080B251
:104E70009A180090206992B2FFF796FBE188628849
:104E8000E37A8818C11A2089A2880AFB030A9A18B3
:104E90001FFA8AF00090206989B292B2FFF784FB72
:104EA000E37A012B40F28C806188A2884FF0C00B1E
:104EB00059189A18CDF800B02069CDF81CB089B205
:104EC00092B2FFF72BFEE0886188E37A4218A0884F
:104ED0004FF0300BD11ACDF800B01A1889B2206902
:104EE00092B2FFF71BFE2289A088E37A61888018BE
:104EF000421E4FF00C0A5918D21ACDF800A02069B2
:104F000089B292B2FFF70AFEE1886088E37A0A1854
:104F1000D11AA08822898018421E0320D21A00903C
:104F2000206989B292B2FFF7F9FD237BDDF81CC03E
:104F3000012B45D0E37AA07A6188A288CDF800C021
:104F400059189A181B1A89B2606992B29BB2FFF77E
:104F5000E5FDE1886288E37A8818C11AA288A07A00
:104F6000CDF800B09A181B1A89B2606992B29BB250
:104F7000FFF7D4FD2289A088E37A61888018421E59
:104F8000A07ACDF800A05918D21A1B1A89B260690C
:104F900092B29BB2FFF7C2FDE1886288E37A88187B
:104FA000C11A2289A0888018421EA07AD21A1B1A20
:104FB00003200090606989B292B29BB2FFF7AEFD08
:104FC000002E44D0002D42D0227B6369B4F804A0A7
:104FD000B4F806E0208B012A22690EBF194611465B
:104FE0001A466388B8F1020F2CBFC2440AF1020AC4
:104FF000022F2CBFDB190233C7EB0E071FFA8AFC06
:105000001FFA87FAA77A9BB227B107F1020E4FEA7F
:105010004E0E01E04FF0060ECEEB0A0A1FFA8AFE92
:10502000B4F808A0C8EB0A081FFA88F817B10237CD
:105030007F0000E00627C7EB0807BFB28DE80050ED
:10504000029703960495CDF81490FFF7EFFCA17E2C
:10505000002936D1A9E0002D3FF487AEA27AB4F83A
:1050600004A0208B6FF0010E0EFB02F31FFA83FEEB
:1050700063881FFA88F1D31852448A1892B20092BA
:10508000E2881FFA87FC72446344CCEB020C1FFADF
:105090008CF20192228903969644C1EB0E018AB2EA
:1050A00002920495CDF81490216962699BB2FFF7D2
:1050B000BDFC5AE6E27A01212173002A7FF459AE41
:1050C0006BE0A27E6088B4F804C0002A6DD023781B
:1050D000052B08D1B9F1000F05D035490B6813B184
:1050E0003449096811B9344B1968344B8A425CD28F
:1050F0006DB111B20F0107EB81015F18B968042788
:1051000007FA01F1A94250D1AD0800D056B916B244
:10511000350105EB8607D91901268D6806FA05F7D2
:10512000CE68BDB212B2110101EB82029F18B4F831
:1051300006E09A58B9687B68248902918DE860007E
:105140000CEB540C3C6900EB5E00039402FB03F48F
:10515000ACEB530E6143A0EB5200049180B21FFAF6
:105160008EF192B29BB2FFF7AFF91EE0FF25A28845
:105170006188E37A00952069FFF7D0FC227B012A41
:1051800013D0A37A8BB1E07A6188A2880095C31A04
:105190009BB26069FFF7C2FC07E020896188A288A2
:1051A000E38800902069FFF7FFF909B0BDE8F08FB0
:1051B0004C0200205402002020540208AC2D0208AA
:1051C00010B588B0044600211C2201A806F068FC36
:1051D00003230C488DF804304FF4A0710123ADF87F
:1051E0000A104FF4F07200210460ADF80C208DF825
:1051F000103001A80A460B460594FFF739FD08B0A8
:1052000010BD00BF5002002000210A460B46FFF7E8
:105210002FBD30B58BB002AC8DF804008DF80510B1
:105220008DF806200021072220461D4601F042FF8E
:105230000021182204A801F03DFF3F238A2001A984
:105240000322ADF81030ADF812000723069104A830
:10525000002107920894099300F0A4FB002814DBB6
:105260009DF8080090B902999DF80B30C1F30F2208
:105270009DF80C102A8043EA01220E9B1A800399A4
:105280000F9BC1F30F221A8000E0FF200BB030BD4E
:10529000F0B595B01F469DF86C509DF87460ADF860
:1052A0000610AB190E33282BADF8042054D814ACDB
:1052B000022204F8280D0DF10601601C01F0F8FE31
:1052C0000222E01C01A901F0F3FE9DF868001C9980
:1052D0008DF82E002A4604F108008DF82F508DF825
:1052E0002D7001F0E5FE05F1080114AA52FA81F3D0
:1052F0000935EDB203F8286C32467619F6B21E99DC
:10530000601901F0D5FE0222A0191FA901F0D0FEFC
:10531000B01C022220A954FA80F001F0C9FE00213D
:10532000182204A801F0C6FE3F21331DADF810106D
:105330000DF10F0001218322DEB20890099104A82B
:105340000021ADF812200694079600F02BFB0028F0
:1053500004DB9DF80F0002E0422000E0FF2015B0C2
:10536000F0BD30B58FB01D468DF81C008DF81D10B6
:105370000DF11E001146102201F09AFE9DF84C001E
:1053800014999DF854209DF848308DF83000CDF8E0
:1053900031108DF835200021182201A88DF82F300A
:1053A0008DF82E5001F086FE3F2386201A21ADF89D
:1053B0000430ADF80600012304910DF10302002131
:1053C00007AC01A803940592069300F0EBFA0028BD
:1053D000ACBF9DF80300FF200FB030BD00B589B011
:1053E00000218DF80400182202A801F063FE3F237B
:1053F0008F2001A9ADF80830ADF80A00012304910F
:105400000DF10702002102A805930692079300F010
:10541000C9FA0028ACBF9DF80700FF2009B000BD05
:1054200000B589B01822002102A801F043FE3F23F5
:105430000DF107000121ADF808300690C233079145
:1054400002A80021ADF80A3000F0ACFA0028ACBF89
:105450009DF80700FF2009B000BDF0B58DB00CAD80
:10546000012814BF1024022405F82C0D1646681CD0
:1054700022461F4601F01CFE0CAA1319002103222C
:10548000684603F82B6C03F82A7C01F013FE002118
:10549000182206A801F00EFE3F204FF4817103236D
:1054A000ADF81800ADF81A10033400AA002106A8C0
:1054B000089509940A920B9300F074FA002808DB0F
:1054C0009DF8000030B90099129BC1F30F221A8099
:1054D00000E0FF200DB0F0BDF0B591B009AD0C4675
:1054E0001646ADF8060002220DF1060128461F46B9
:1054F00001F0DEFD8DF82640012C14BF102402249B
:1055000031462246E81C01F0D3FD10AA13199DF87C
:1055100058009DF8606003F8180C9DF85C109DF829
:1055200064209DF8680003F8166C02AE03F8171C9F
:1055300003F8152C03F8140C00210322304603F85D
:10554000197C01F0B7FD0021182203A801F0B2FD7B
:105550004FF482713F230322ADF80E10093400216D
:1055600003A8ADF80C30059506940796089200F054
:1055700019FA002808DB9DF8080030B9029B1B9A35
:10558000C3F30F21118000E0FF2011B0F0BD70B512
:10559000AAB07A2B16461D46ADF80600ADF80410E9
:1055A00032DC0AAC02220DF10601204601F080FD3A
:1055B0000222A01C01A901F07BFD2A46A01D2E9904
:1055C0008DF82D508DF82C6001F072FD002118220D
:1055D00004A801F06FFD06354FF483700DF10F0143
:1055E0003F230122ADF812000891EDB2002104A87A
:1055F000ADF8103006940795099200F0D3F9002811
:1056000004DB9DF80F0002E0422000E0FF202AB0FA
:1056100070BDF0B5ABB016469DF8C050ADF80600B1
:10562000792D1F46ADF8041034DC0AAC02220DF1CE
:105630000601204601F03CFD0222A01C01A901F058
:1056400037FD2A46E01D31998DF82E508DF82C60DB
:105650008DF82D7001F02CFD0021182204A801F016
:1056600029FD07354FF493700DF10F013F230122FF
:10567000ADF812000891EDB2002104A8ADF8103089
:1056800006940795099200F08DF9002804DB9DF837
:105690000F0002E0422000E0FF202BB0F0BD30B54B
:1056A0007E29A9B00C4627DC8DF820008DF821104A
:1056B0000DF122001146224601F0FAFC00211822C9
:1056C00002A801F0F7FC02340C200DF107013F2382
:1056D0000122ADF80A00069108AD0021E4B202A84B
:1056E000ADF8083004950594079200F05BF90028A6
:1056F00004DB9DF8070002E0422000E0FF2029B013
:1057000030BD00B589B018228DF804008DF8051061
:1057100002A8002101F0CEFC0F203F23ADF80A00C3
:1057200001A901200222ADF8083004910DF1030314
:105730000790002102A80592069300F033F9002893
:10574000ACBF9DF80300FF2009B000BD2DE9F34177
:1057500098460D4B1C680E460A210546B4FBF1F134
:105760006846174600F018F828463146FAB25FFA44
:1057700088F301F087FD20B1684600F014F8002896
:10578000F2D0BDE8FC8100BFB8570208014B186891
:10579000704700BFAC14002010B541600446FFF70D
:1057A000F5FF206010BD10B50446FFF7EFFF23683A
:1057B000C3F101010A18606890422CBF002001204B
:1057C00010BD000013B50446204601F05CF940B955
:1057D000204601A901F070F90248019901F05FF932
:1057E000F2E71CBD2005002010B50A4801F048F979
:1057F000094801F045F90024084B06488C2101FBBB
:105800000431013401F04BF9052CF5D10448002294
:10581000027010BD18050020200500205C02002049
:1058200058020020037A042B08D1817A90F888006E
:10583000C21E914214BF0220002070470120704711
:1058400000B51B48A3B001780023019371BB01F0A0
:1058500016FD184801F017F980B901A9154801F0A3
:105860002BF901F009FD0198083000F05BFD01F013
:1058700006FD1148019901F012F9EAE70F4A137881
:1058800093B140210E4802F06DFD012809D102A814
:10589000802101F069FC0028F3D002A800F042FD4D
:1058A000EFE706490020087001F0E6FC23B000BDD8
:1058B000580200202005002018050020280500209F
:1058C00000040048014801F0DEB800BF20050020B8
:1058D00037B500231948019301F0D5F8F0B91748FE
:1058E00001A901F0E9F801988021083001F03CFCA1
:1058F000054670B1019C84F888002046FFF792FFAE
:1059000020B90F48214601F0CAF80DE00B482146A6
:1059100001E00A48019901F0BBF805E009480122BD
:10592000027001F023FD07E007494B6843F0805205
:105930004A6001F01BFD28463EBD00BF180500204F
:10594000200500202805002000ED00E008B501F04A
:105950000DFD4021044802F005FD012802D1FFF7AA
:10596000B7FFF6E708BD00BF0004004873B502ACFE
:105970001E468905012304F8043D15468A0D42EAB6
:105980008020ADF800006946E01803228DF802502F
:1059900001F08EFB2046314604222B46FFF7D6FE4F
:1059A0007CBD0000F0B587B0044600234588078819
:1059B000009304A80E4601F063F84C486188A36880
:1059C000012202702088227BFFF7D0FF002E7DD1BC
:1059D000474B1A68AD050A21A80DB2FBF1F140EA68
:1059E0008723002908BF012102A89DB2FFF7D4FE3A
:1059F00002A8FFF7D8FE00285DD1FFF763FF00285B
:105A0000F6D101F03CFC69463A4801F055F800999E
:105A10000A7A042A01D004A848E0487A91F888203C
:105A20000F2808D002D80E2833D117E0102842D012
:105A30003E282ED11EE0B1F80D30AB423BD160685C
:105A40000F2802D0CA7A22B335E063692069033A8D
:105A50009A42A8BF1A4662610B3117E08B89AB42AC
:105A600029D16069063A8242A8BF02466261206974
:105A70000E310BE0C87A636898420AD16069043A33
:105A80008242A8BF0246206962610C3101F010FB1E
:105A90001CE004A801F003F8174800F0F4FF38B147
:105AA000144801A901F008F81348019900F0F7FF24
:105AB00001F0E2FB9CE704A8FFF784FE0B480021FD
:105AC000017001F0D9FB4FF0FF300CE000990A485B
:105AD00000F0DEFF04A8FFF775FE044B00241C70E5
:105AE00001F0CAFB204607B0F0BD00BF58020020FD
:105AF000B8570208200500201805002070B590B0A6
:105B000008AC05460E4620220021204601F0D2FABC
:105B10001F2D34BF2A461F22601C31468DF82050AD
:105B200001F0C6FA0021182202A801F0C3FA0823E6
:105B300009202021ADF80830ADF80A0001230591B5
:105B40000DF10702002102A8049406920793FFF7C3
:105B500029FF0028ACBF9DF80700FF2010B070BDE2
:105B600010B501F08CFB054800F08DFF044601F0F4
:105B700083FBD4F1010038BF002010BD20050020B8
:105B800030B52A4B8BB005AA03F110051868596887
:105B9000144603C40833AB422246F7D1187824498F
:105BA00020700B6802934C68029803948A68214B1A
:105BB0000492039A049942404A400AAC04EB1270E2
:105BC000019210F8141CC2F303602418197214F81F
:105BD000141C5972110C0AACC1F30310201801F007
:105BE0000F0110F8140C9872601810F8141CD97278
:105BF000110AC1F30310201801F00F0110F8140C62
:105C00001873601810F8141CC2F30310597321188C
:105C100002F00F0211F8140CA118987311F8140C6B
:105C2000019AD873044B1A600BB030BD45BD010812
:105C30009075FF1F000000201200002070B5204E5C
:105C4000204D002818BF064600208AB00146C5F83E
:105C50003462FFF753FFC4B2002C2FD128881A4BAF
:105C60006988009389B22246062380B2FFF78FFC31
:105C70000AAB4FF4107223F8022D2888A9880093EC
:105C800089B22246022380B2FFF781FCFF20FFF792
:105C9000A5FB304606F01EF80722C3B23E20019352
:105CA00005920690009402960394049420464FF4C3
:105CB0009C7140F253722346FFF7EAFA0AB070BDB6
:105CC00000000020541000205557020870B51A4BF0
:105CD0001A4986B00220009301220723FFF7BDFB7B
:105CE00008B1472026E0164CE1880190102504F108
:105CF000080201260290059288B200950395049649
:105D00000221104A1423FFF7E7FB0028E9D1E388BA
:105D10000D4A0190082100910A34022198B20291A3
:105D20000395049605941423FFF7D6FB002814BFAF
:105D30004720002006B070BD5A10002035570208D9
:105D4000541000205C570208455702082DE9F04F17
:105D5000894B1A6893B082420546059100F06B8129
:105D6000864F874C1860FFF70BFF00214FF40E722F
:105D7000384605F095FEE06C40F00801E164E66C01
:105D800006F008030693069BE26C42F00200E06412
:105D9000E16C01F002060796079BE36C43F00202F8
:105DA000E264E06C00F002010891089BE66C46F0AA
:105DB0000203E364E26C02F002000990099BE16CCB
:105DC00041F00206E664E36C03F002020A920A9BC9
:105DD000E06C40F00201E164E66C06F002030B9314
:105DE0000B9B002D00F0D880FFF7FEFC256E45F4DC
:105DF00080512166266E06F48053624E0C934FF05C
:105E0000040C0024012530460DA9CDF834C0CDF88E
:105E100010C00C9B0E950F941094119402F0C0F9D1
:105E20007269082122F0040070614FF00208032615
:105E30004FF0050A0D915448CDF838800DA90F9503
:105E40001096CDF844A04FF0100B02F0A9F94E487F
:105E5000CDF834B00DA9CDF838800F941096CDF858
:105E600044A002F09DF9202347480D930DA94FF05F
:105E70008009CDF838800F951096CDF844A002F037
:105E80008FF94148CDF834900DA90E950F951096D5
:105E9000119402F085F949462A463B4802F068FA17
:105EA0004FF040093848CDF834900DA90E95CDF843
:105EB0003C801096119402F073F93348494622460B
:105EC00002F056FA01F01EF901F03AF92F4A2E4875
:105ED0000E920DA9CDF83490CDF83C801096119417
:105EE00002F05EF9DDF810C029494FF400002246A7
:105EF000C1F880016146172002F002F9172002F074
:105F000035F9504601F040FA20460621214AFFF7B4
:105F1000C6FB002840F08F80FFF782FA0146002878
:105F200040F0898007EB08033A1D00930192284650
:105F300007223B46FFF76DF9014600287BD140F26E
:105F400039530293CDF800B0019003900246072325
:105F5000FFF707FA00286ED1FFF7B8FE00286AD1D4
:105F600028460721FFF7CDFB002864D187F82100E0
:105F70000598FFF763FE5EE02C050020541000201A
:105F800000100240000C00480004004800001110FE
:105F900000E100E012000020172002F0F3F8226E6A
:105FA000264E22F4805001212066304604240E91B2
:105FB0000DA90D9410950F95119502F0F1F87369E4
:105FC0001F4823F00402726108240DA90D9402F009
:105FD000E7F821462A461A4802F0CAF9202618484E
:105FE0000D960DA902F0DCF82A461548314602F05C
:105FF000BFF980200D900DA9114802F0D1F821467B
:106000002A460F4802F0B4F940240D480D940DA91A
:1060100002F0C6F821462A46094802F0A9F91024E0
:1060200007480E950DA90D9402F0BAF804482146D0
:106030002A4602F09DF913B0BDE8F08F000C00482D
:106040000004004873B506460C461546054BD88833
:10605000009480B2314600222B46FFF798FA0028C0
:10606000F4D17CBD5410002007B5074B988DD98D15
:1060700093F83020313300920022019389B2134605
:1060800080B2FFF7C6FA0EBD54100020034B012268
:10609000002083F8212083F820007047541000204E
:1060A00030B502465648437E85B0002B40F0A580AF
:1060B0000C780346052C00F28580DFE804F0556F6C
:1060C00069838303057E4E4B002D40F09680188A2D
:1060D0004C78C0F30725AC4204D1188A8C78C5B23D
:1060E000AC4201D000225EE0188A84B2E4B9CD78D7
:1060F000087900EB05244348A5B2DD815861DC89AD
:106100004148A5B25D840488A5B2B5F5827F01D966
:10611000012248E0D889053A95B284B2A54284BFED
:10612000DD89ADB2053108E0D889033A95B284B271
:10613000A54284BFDD89ADB20331314C2A46606986
:1061400005F0E2FB61694B196361E289551BADB251
:10615000E581208A411C8BB22382E28990B200281B
:106160004BD1FFF793FF48E04D780DB98B780BB119
:10617000032218E01946092201A805F091FC2048E5
:10618000028904218DF8081090B201A9092232E099
:106190004D780DB9887890B1042204E04C780CB9A0
:1061A0008C7814B105220A700CE0164D16481C823A
:1061B000DC815D611C765C7683F8214004801B895C
:1061C00098B218E00E4D0F4C00232B82EB816C61CE
:1061D0000D4C2B766B7685F82130238009782D893C
:1061E00001930E228DF804208DF805108DF80830EB
:1061F000A8B201A90522FFF725FF05B030BD00BFF9
:1062000054100020FC0600202C14002030B5384B20
:106210001A7E87B00124002A67D11C765861354860
:10622000D9811A820280324CE18988B2002859D083
:106230000522208A8DF80420238A228A8DF80630D0
:10624000C0F3072190B28DF80510F8B9E08981B24A
:106250000F2998BFE589E389E08961698DF8080015
:1062600098BFADB2C3F3072288BF0F258DF8072072
:106270000DF109002A4605F047FB61694B1963617E
:10628000E289501B81B2E181053515E0E1898BB2CD
:10629000112B98BFE589616994BFADB211252A46DB
:1062A0000DF1070005F030FB626950196061E1896A
:1062B0004B1B9AB2E28103350D4C238A581C81B2E4
:1062C000012321826376207EAAB210B96076022073
:1062D0000CE02189D2B288B201A9FFF7B3FE0022F7
:1062E0006276A0E72082207600E0204607B030BD2D
:1062F000541000202C140020044B054800221A736F
:10630000016841F480720260704700BF54100020A1
:10631000F4060020024B1A6842F4007018607047BF
:10632000F406002037B50378042B04466DD140787D
:106330003E2808D0FF2812D0052866D103B0BDE85A
:106340003040FFF7E7BFE378012B5ED1B4F80510CA
:1063500004F1090003B0BDE83040FFF7CDBFB4F849
:10636000031040F60142914203D0123291424CD1C7
:1063700019E0274BB4F80710188982B2901C8142AB
:1063800043D1227B012A40D1607B00283DD19984F2
:106390002049086840F0400008601F49087800283C
:1063A00033D01A7331E01A48B4F8073041898AB201
:1063B000511C8B4229D1184A117899B1037B23B320
:1063C00004F10A05607A2946FFF76AFE637AB4F899
:1063D0000500B4F8071000228DE828001346FFF7E7
:1063E00018F912E0B4F805208285C385637A80F835
:1063F000303090F8302004F10A01313005F084FA91
:106400000448016841F00402026003B030BD00BFDF
:1064100054100020F406002050100020064B18688D
:10642000026822F001010160036823F0050242F0D6
:1064300001010160704700BFA8060020084B1868E2
:10644000828C82B0D1B28DF80710036823F001026C
:106450000260016841F00503036002B0704700BFAD
:10646000A80600200D4B1B681A6822F0010110B528
:10647000196004090A491A8A31F8141000F00F0053
:10648000013841FA00F1D2B2480051004143D960CD
:10649000186840F001021A6010BD00BFA806002075
:1064A0006C570208084B1868026822F00103036069
:1064B000028AD3B25A0049005143C160016841F0D9
:1064C00001030360704700BFA8060020144B202280
:1064D00013B5C3F884211348134A036810684FF0BA
:1064E000FF311962B8B9114A1168B1F5967F12D21D
:1064F0000F4908689C8C0F4BE4B21C5408684FF499
:1065000096730130B0FBF3F403FB140008601168CC
:106510004B1C136003E09B8CD8B28DF807001CBDA8
:1065200000E100E0A8060020A0060020940600205C
:106530003005002064050020014B186880B27047C8
:1065400094060020F0B503460D18ADB29CB2A542EA
:106550001ED0104C25682DB9B2F1FF3FF9D0013A99
:10656000F7D1F0BDA2B172B62668771E276062B679
:10657000094C0A4E2568775D03F8017B25686E1C7F
:106580004FF49675B6FBF5F705FB17652560DBE75D
:10659000F0BD00BF940600206005002064050020C7
:1065A00038B5044603214FF0FF32FFF7CBFF657883
:1065B000A37843EA0525E01C29464FF0FF32FFF798
:1065C000C1FFE81C80B238BD38B505460C46C9B1DC
:1065D000FFF724FF0C4B1868013CA4B24FF6FF7282
:1065E000944206D0C2691206FCD515F8011B01853C
:1065F000F2E705480168CB695B06FCD5BDE8384089
:10660000FFF71CBF38BD00BFA8060020FFF7DCBFA6
:106610002DE9F743994D9A4BDFF86C92994C00267F
:1066200028224FF002083146074628461E70A9F876
:10663000008005F035FA1120FFF714FF606920F49F
:1066400080516161642000F09FFE626942F48053D2
:106650006361284641464FF48032FFF773FF287884
:106660006C78A9F800803B2802D03F2840F0E980F0
:106670008DF804608DF805600026354614F0F00FA3
:1066800066D004F01000C2B2DAB1DFF8FC81DFF8A6
:10669000EC91B8F80030012109EB03004FF0FF3214
:1066A000FFF750FF012E07D8B8F8002002A988197B
:1066B00019F8023000F8043CB8F80010481CA8F89B
:1066C000000004F02002D3B27BB1DFF8BC816B483C
:1066D000B8F800104FF0FF3240180121FFF732FFE9
:1066E000B8F80020531CA8F8003004F04001C8B2EC
:1066F00078B1DFF89481614BB8F800200121981837
:106700004FF0FF32FFF71EFFB8F80010481CA8F842
:106710000000E2B200241106B0D5DFF86C81574CBE
:10672000B8F800300121E0184FF0FF32FFF70AFF00
:10673000B8F800100136481C645CA8F80000F6B2F6
:1067400025B914F00F0518BF012597E7012595E736
:106750004B4901260E70494E727812F00F010CD091
:10676000494C23884FF0FF32F018FFF7EBFE7078AA
:10677000228800F00F018B18238041490220087005
:1067800035B93F4B9DF8050003221A7098B917E000
:106790003D4C3A4B2288012198184FF0FF32FFF709
:1067A000D1FE2088411C8AB2228000219142E8D289
:1067B0004B1CD9B2FAE7802859D00420187040E069
:1067C0009DF80430112B00D00BB9002F53D03C0999
:1067D0002E4D07F00F0135F81420481E42FA00F440
:1067E0001A0903F00F0335F81250591E45FA01F04B
:1067F0008442C8BF8DF804709DF80450244885F089
:106800001003D943FF24102204708570C170214CFD
:106810001B4D42700421FFF7D7FE0520287002218E
:106820004FF0FF322046FFF78DFE2278FF2A08D175
:10683000617811238DF8043029B110290CD006207D
:106840002870002018E007212970A01C01214FF0BA
:10685000FF32FFF777FE0AE008222A70A01C02210F
:106860004FF0FF32FFF76EFEA3788DF804309DF8ED
:106870000400FFF7F7FD0120BDE8FE83340500208A
:106880005C050020000800489C0600206C570208A8
:106890009806002090060020F0B587B0002873D03D
:1068A0000025072302244FF48077032601A94FF027
:1068B00090400593029401970395049601F070FCB3
:1068C0004FF40070019001A94FF09040029403959D
:1068D00001F066FC03943D4C04954FF48051012275
:1068E0000191204601A9029201F05AFC63693849DE
:1068F00023F4805060610A6E42F480440C660B6E93
:10690000344C03F480400090294648222046009BE6
:1069100005F0C6F8304927620C204FF440524FF47E
:106920008063606120462160E260236103F0FCF92E
:1069300021680A6822F001030B60086840F4805265
:106940000A604B6843F4006048608A6842F4401370
:1069500043F4026088600E820A6842F020030B60F4
:10696000252001F003FC1D491D481E4A1E4B0D60E9
:106970002168056015601D60086840F001020A602A
:106980009720FFF745FE1EE0104C252001F0FAFB92
:1069900063690F4923F4805060610A6E22F48043DA
:1069A0000B664FF440700321019002914FF090402C
:1069B00001A901F0F5FB4FF48052204601A9019294
:1069C00001F0EEFB012007B0F0BD00BF0008004859
:1069D00000100240A806002000380140A006002058
:1069E0006005002030050020940600200429F7B53A
:1069F00005460E4600D8FEE705214778FFF7E4FD7F
:106A00001D4B00241C800DF1070001214FF0FF32C7
:106A1000FFF798FD5CB1002CF5D0174B9DF80710DF
:106A20001888164A1154013080B21880FEBD9DF8B6
:106A3000073003F0F001602901D0902909D1602BC3
:106A4000E1D00D4C0D48218843544B1C2380012478
:106A5000D9E7BB420ED1052E297903D0681DFFF777
:106A6000B3FDD0E7044A054811804FF0FF32FFF72D
:106A700069FDC8E7FEE700BF2C140020FC060020DB
:106A80000060406070470368191A484248417047E7
:106A9000036848600B6001600868416070474368A4
:106AA00008604B60416048680160704790E80C00E6
:106AB0001A60026853607047036810B50C460B609B
:106AC0000068FFF7F3FF226800201060216848602B
:106AD00010BD0000BFF34F8F054A064BD16801F48B
:106AE000E06040EA0301D160BFF34F8FFEE700BFD3
:106AF00000ED00E00400FA0570470000024B14208E
:106B00001860FDF7A1BC00BF00080020002828D0B5
:106B10001548026847F22F539A4244F61F61134BFF
:106B20000CD81A688A4209D8114900220A6002600A
:106B300010481A600368462B10D1704718680B4A3A
:106B4000884209490A484FF0000303600B60136054
:106B500004D8084A1168462900D17047054A4620E2
:106B60001060FDF771BC00BF441400203C140020ED
:106B7000301400200008002030B5002287B04FF00C
:106B800090404FF4004101F0F3FB03200123002467
:106B90004FF40045049001A94FF0904002930195F5
:106BA000039401F0FDFA294622464FF0904001F08F
:106BB000DFFB04484FF40071224601F0D9FB07B017
:106BC00030BD00BF0008004808B572B6FFF7D4FF1B
:106BD00003484FF48071002201F0CAFBFFF77AFFEF
:106BE0000008004830B587B0044600208025012306
:106BF00003900490059001A908480195029301F0C3
:106C0000CFFA0648294604F0010201F0B1FB14B1A5
:106C1000034919220A7007B030BD00BF00080048C0
:106C2000F0060020FEF70CBE014801F05CBF00BF7B
:106C30005408002008B5174B5A69510729D504217B
:106C400059614FF0904001F08DFB134948B100238A
:106C5000012048600B608B60CB60BDE80840FFF707
:106C600055BF4868A8B18B68DA0606D5096842F2B4
:106C70000F70814205D9FFF7A7FF0A68B2F57A7F46
:106C8000F9D2054B054900225A60086840F4802279
:106C90000A6008BD0004014004080020F40600203A
:106CA00008B5054B1869400601D5FEF74FFE0349AC
:106CB00040224A6108BD00BF0004004800040140B2
:106CC00030B5ABB00024012340255C48069305A9EC
:106CD000019407940894059501F062FA22465748FA
:106CE000294601F045FB564802684FF47A71B2FB21
:106CF000F1F40A235C4340F6B830B4FBF0F203929F
:106D0000039C611E0391002CFAD10B2020230690D6
:106D100005A94A48059301F043FA40F61C42214672
:106D2000029210A8682204F0BBFE2146454C1822AE
:106D30000AA804F0B5FED4F8881041F04053C4F816
:106D40008830E06C40F40052E264E46C04F40051DA
:106D50000491049B3C4B042001241C2110931590AA
:106D60004FF48052802310A82091179418941A94FD
:106D70001B941E921F94219300F012FB01460028E1
:106D80004FD110A801F072F900284DD106210E2232
:106D90000C910D900E900F900AA910A80A920B94D6
:106DA00000F0B2FC002842D110A800F0A1FF00289A
:106DB00040D142F2107110A800F014FC10A800F0AD
:106DC0000DFF83050DD510A800F09AFC01900198E5
:106DD000029B584300FA04F04FF6F072B0FBF2F158
:106DE000019110A801F034F810A801F051F81548ED
:106DF000C36A43F40052C262C16A21F40053C36201
:106E0000C26C22F40051C16460200022059003236B
:106E10000A48069305A90792089201F0C1F9019862
:106E20000AE06FF0010007E06FF0020004E06FF08D
:106E3000030001E06FF004002BB030BD00080048F3
:106E4000F8060020001002400000045070B56F4B9F
:106E50006F491A680878083298B01A6028B1431E42
:106E6000D8B2087008B9FFF7BDFE6A4A116879B157
:106E700069486A4A036808330360016813689942E5
:106E800006D3674A116841F4006313600022026070
:106E90006448416800293AD0036808330360826877
:106EA000016812F0100F23D0B1F5FA6F09D9846888
:106EB000E40706D4826842F0010181605A48FDF778
:106EC0001FFC584C206841F28833984209D9A268C7
:106ED000900706D4A16841F00200A0605348FDF776
:106EE0000FFC23684F4842F2107293420FD905E01D
:106EF000B1F57A7F0BD98368D90608D481684A072F
:106F000005D4836843F004028260FFF735FE3F4AF0
:106F1000474B1068196888424ED9464801780029C5
:106F20004AD0404E7668002E46D11568424905F594
:106F30001C54103408A81C6004F06EFEFFF7C0FE5D
:106F40004FF47A720A25B0FBF2F3B3FBF5F105FBBF
:106F50001134303464238DF82F40B0FBF3F4B0FBD0
:106F6000F5F0B4FBF5F1B0FBF5F32E228DF83020EF
:106F700005FB114205FB130530358DF832502F4DBE
:106F80002F498DF834603032562408A88DF831200E
:106F90008DF8334004F01AFE0FCD01AC0FC495E814
:106FA000070084E8070008A804F094FE08A982B24C
:106FB000334601A8FDF75CFE2249234B0A680832DC
:106FC0000A600868984201D9FFF7FEFD1F48016872
:106FD00044F61F62914207D80368083303600068D3
:106FE000904201D9FFF78AFD194B196847F22F52D9
:106FF000914208D81868083018601B68934202D97B
:107000000020FDF721FA18B070BD00BFAC140020BD
:10701000F006002040140020901200208C12002066
:10702000F406002004080020DA570208ED57020891
:10703000200C0020280C0020F95702088C57020869
:107040000958020830140020C02709003C14002011
:107050004414002070470000F8B506460F4600258E
:10706000114800EB4510C469BCB1012C04D0022CBE
:1070700007D10E48394601E00C48314604F0CCFDFA
:107080000A4C204604F026FE074982B2002301EB99
:1070900045102146FDF7ECFD01E0FEF7B5F801359E
:1070A000082DDDD1F8BD00BF4858020814080020A3
:1070B00004F088BB04F0F4BCFEE7000082B00023BB
:1070C00001900B4A0B499818884204D20A49585833
:1070D00098500433F5E7094B094A934203D2002044
:1070E00043F8040BF8E7019802B0FCF74DB800BF75
:1070F0000000002020000020A05A020820000020EC
:107100001C1700200C480D4B4FF4827C4FF4E062BA
:107110004FF4007180E80810C260002381610722EB
:10712000302183600361436103624362C262C161D3
:10713000836202F0A8B800BF48140020003001406C
:1071400010B5084C636923F004006061052000F06D
:107150001BF96169052041F004026261BDE810403D
:1071600000F012B9000C0048F0B589B000220B23E2
:1071700005460F4624488DF8103080214FF0FF3629
:107180008DF811208DF812208DF813208DF8142021
:1071900001F0EEF800961D4804A906AA052302F0A6
:1071A000C9F800B1FEE79DF81810022919D19DF821
:1071B0001C409DF81B0050EA042413D0BC4228BF99
:1071C0003C46FF212246284604F06AFC00960F4800
:1071D00029462A46234602F0ADF800B1FEE7E4B2A4
:1071E00000E0044680210848012201F0C1F8002196
:1071F0000391039A012A03DC00BF039B591CF7E7A4
:10720000204609B0F0BD00BF00040048481400202B
:1072100070B50A4E86B00020402501240323039058
:1072200001A9304601950294049300F0B9FF30465D
:107230002946224601F09CF806B070BD00040048C3
:1072400030B50B480B4C87B0032140230290022538
:1072500004910022204601A901930395059200F0B4
:107260009FFF204601A9039500F09AFF07B030BDAB
:107270000000111000040048172000F077BF17200D
:1072800000F080BF2DE9F043C9B000240A271D4655
:10729000AA238146884616468DF818308DF810705E
:1072A0008DF811408DF812408DF813408DF8144080
:1072B0008DF819408DF81A408DF81B408DF81C4050
:1072C000FFF7DDFFFFF7A4FF0397039A501E03901B
:1072D0000AB100BFF9E7224C2248402161618021B8
:1072E0004FF0FF3401F044F800941F4804A906AAA7
:1072F000052302F01FF800B1FEE7FFF7A1FF9DF89C
:107300001820022A1DD19DF81900731998421ADB22
:1073100046B100941448494608AA334602F00AF8D8
:1073200000B1FEE70DB900240EE04FF0FF310091EF
:107330000D48414608AA2B4601F0FCFF0028F2D078
:10734000FEE7FF2400E0FE2406488021012201F030
:107350000FF8FFF791FF204649B0BDE8F08300BF6A
:10736000000401400004004848140020014B402262
:107370005A6170470004014070470000014B1868D3
:10738000704700BFAC14002038B50446FFF7F6FF85
:107390000546FFF7F3FF401BA042FAD338BD704704
:1073A0002DE9F0410446002800F0DB80856D25B909
:1073B000FFF7F5FFE56584F8545023689A6891005B
:1073C00003D5986820F0005199609A68D20005D4DE
:1073D00098687D4A40F08051996012689868C000B2
:1073E00009D4A16D41F01002A265E06D40F00101E9
:1073F000E165012000E00020A26DD10600F1AD8022
:1074000099684A0700F1A980A56D45F00206A665B6
:107410009F6807F00302012A02D11968CD071BD427
:107420006A4D6B4EAB4240F0A180B76807F0030293
:10743000012A40F099803668F10740F1958082F08A
:10744000010202F001073FB1624E6268B16821F4A7
:107450007C1545EA0207B7604FF4005898FAA8F681
:10746000B6FA86F14FF480355FFA81F895FAA5F205
:10747000B2FA82F74FF4602CFAB29CFAACF6B6FA84
:1074800086F15FFA81FCA56BE168A768E66929438C
:10749000394306FA08F7666A06FA02F6A26A394321
:1074A000551E05FA0CF231431143E26A012A03D05A
:1074B000256B0DB12A431143DD68474A2A40114329
:1074C000D9609A6812F00C0F31D14FF4804797FAC7
:1074D000A7F6B6FA86F50221EFB291FAA1F2B2FA56
:1074E00082F6A169626BDD68F6B202FA06F201FA71
:1074F00007F1114325F48045E26B25F0020529438D
:10750000012AD9600FD1626C216C1D691143A26CF4
:1075100041F001011143E26C25F4FF650A4325F0B7
:1075200005052A4302E0196921F001021A61216967
:10753000012906D1196B226A21F00F01013A0A4391
:1075400002E01A6B22F00F021A63A36D23F003020C
:1075500042F00101A165BDE8F081A36D43F0100088
:10756000A0650120BDE8F0811C4D20E0AF68B3426A
:1075700007F0030113D1012902D12A68D7070BD4E0
:10758000164DAE6806F00301012901D0002103E089
:107590002F68FE07FAD5FFE7CD0713D406E00129CF
:1075A00006BF2D6805F0010500255DB9084DA968E5
:1075B00001F00302012A01D0002240E72D68E9070B
:1075C000FAD53CE701223AE7F80600200000045013
:1075D000000104500003045007C0F0FF00020450F3
:1075E00070470000F8B54569082D04460E4622D0C4
:1075F0000268404B9A4203D003F5807082426FD1FB
:107600003D4B9968C9066BD0986800F01F010529A9
:1076100066D0986800F01F01092961D0986800F4CD
:107620004041B1F5004F5ED09B6803F44042B2F593
:10763000404F58D00425FFF7A1FE074623681A687B
:1076400015420ED1721CFAD02EB9A16D41F004037F
:10765000A3650320F8BDFFF791FEC01BB042EDD932
:10766000F3E7244918688B4200F0080013D0234A3E
:10767000934210D0D2F8086116F01F0F02F5807205
:1076800009D0966806F01F06052E04D0926802F015
:107690001F02092A01D1DA6800E0CA68082D01D169
:1076A0001D6003E0510401D404211960A16D41F46F
:1076B0000071A16508B90020F8BDDB6813F4406FC4
:1076C000F9D19304F7D4A06D20F48072A265A16D66
:1076D00011F48050EFD1A36D43F00102A265F8BD13
:1076E000D268D007A6D5A06D40F02001A165012089
:1076F000F8BD00BF00000450000304500002045015
:107700000368186C70470000F7B5044690F8540001
:1077100000230128019300F0758123689A680120F5
:10772000520784F8540000F16581486804284FF43A
:10773000F86518D81F6B95FAA5F6B6FA86F2D6B298
:1077400095FAA5F5B5FA85F2D2B246431F25504306
:107750000A6805FA06F627EA060602FA00F246EA81
:1077600002051D6350E0092819D85F6B95FAA5F64C
:10777000B6FA86F2D6B2053895FAA5F5B5FA85F2CD
:10778000D2B246431F2550430A6805FA06F627EA97
:10779000060602FA00F246EA02055D6334E00E28AE
:1077A00019D89F6B95FAA5F6B6FA86F2D6B20A38C2
:1077B00095FAA5F5B5FA85F2D2B246431F25504396
:1077C0000A6805FA06F627EA060602FA00F246EA11
:1077D00002059D6318E0DF6B95FAA5F6B6FA86F20E
:1077E000D6B20F3895FAA5F5B5FA85F2D2B246436E
:1077F0001F2550430A6805FA06F627EA060602FA2C
:1078000000F246EA0205DD63986810F00C0F40F0C4
:10781000D0800A68092A4FF038001BD99E6990FA77
:10782000A0F7B7FA87F5EFB2A2F10A0590FAA0F037
:10783000B0FA80F04FF0070C6F430CFA07F726EA16
:107840000707C0B28E68454306FA05F647EA060503
:107850009D6117E05F6990FAA0F5B5FA85F6F6B27A
:1078600090FAA0F0B0FA80F5E8B25643072505FA81
:1078700006F68D68504327EA060705FA00F547EA41
:1078800005005861D8684D69C0F3C10708697E00DA
:1078900005FA06F5461E4FF0F840032E43D8DFE800
:1078A00006F0021222321F6E90FAA0F0B0FA80F6B3
:1078B000F0B2B24E3E4046F00046354302FA00F2C6
:1078C0002A431A6675E05F6E90FAA0F0B0FA80F66F
:1078D000F0B2AA4E3E4046F00046354302FA00F2AE
:1078E0002A435A6665E09F6E90FAA0F0B0FA80F6DF
:1078F000F0B2A24E3E4046F00046354302FA00F296
:107900002A439A6655E0DF6E90FAA0F6B6FA86F042
:107910009A4E3E40C0B246F00046354302FA00F2AD
:1079200045EA020044E01F6E90FAA0F5B5FA85F032
:10793000C0B207F0F84702FA00F5AF4203D1186E63
:1079400020F000471F665D6E4FF0F84090FAA0F7F8
:10795000B7FA87F0C7B205F0F84502FA07F085429A
:1079600003D15F6E27F000455D669F6E4FF0F840D3
:1079700090FAA0F5B5FA85F0C0B207F0F84702FA20
:1079800000F5AF4203D1986E20F000479F66D86E95
:107990004FF0F84595FAA5F7B7FA87F5EDB200F084
:1079A000F84002FA05F2904203D1DA6E22F000406C
:1079B000D8669A6802F00300012802D11A68D0073D
:1079C00016D4CD680A68B5F1804F4FF001001BD086
:1079D000D3F8B05000FA02F225EA0200C3F8B00072
:1079E000086811284FD1664B9A6812F4000F58D0DE
:1079F000002003E0A16D41F02003A365002184F87D
:107A00005410E4E00220E2E0D3F8B06000FA02F0A3
:107A10003043082AC3F8B0004FF0380519D99F69E0
:107A200095FAA5F6B6FA86F0C6B2093A95FAA5F522
:107A3000B5FA85F0C0B2564307254243886805FA77
:107A400006F627EA060600FA02F046EA00059D61FE
:107A5000C6E75F6995FAA5F0B0FA80F6F6B2013292
:107A600095FAA5F5B5FA85F0C0B25643072542430D
:107A7000886805FA06F627EA060600FA02F046EAE2
:107A800000055D61ACE7122804D13D4A916811F010
:107A9000807FACE70028ABD139498B6813F4800FA5
:107AA000A5E72368996801F00302012A02D1196849
:107AB000C9070BD4334A3449934217D18A6802F07C
:107AC0000302012A08D10968CA0705D5A26D42F050
:107AD0002003A365012091E72C4A916801F003017E
:107AE000012948D11268D107F0D444E08B42916853
:107AF00001F0030114D1012902D11268D2070BD47D
:107B000022498A6802F00302012A01D0002204E01F
:107B10000968C907FAD500E00A46D107D6D407E0BC
:107B2000012906BF126802F001020022002ACDD10D
:107B3000154A916801F00301012902D11268D207A8
:107B4000C4D4112828D111498B427FF451AF0C497C
:107B50000F4A886840F400038B6011680D48782252
:107B6000B1FBF0F050430190019B002B3FF440AF7C
:107B70000199481EF7E711281AD1E8E700F0FF0342
:107B8000000304500000045000010450000204509F
:107B9000F806002040420F0012280BD10C48834207
:107BA0007FF426AF0B48836843F0807282601FE742
:107BB0001228F7D000287FF41BAF07498B427FF4CF
:107BC00017AF044B9A6842F48001996016E7FEBD36
:107BD000000204500003045000000450806D704700
:107BE00003689A6812F00C0F70B5044601D10020AA
:107BF00070BDD868800110D5E269012A0DD1A06955
:107C000001280AD11F4A1968490602D4013AFAD15B
:107C10002DE040261E600C2101E060290BD0986801
:107C2000420706D59A68960703D49E6846F010006E
:107C300098600C2909D09D682D0706D59A68900791
:107C400003D49E6846F02000986060390C299ABFE2
:107C50000D4B5D5C0425FFF791FB06462368996890
:107C60000D42C4D0FFF78AFB821B052AF6D9A06D0E
:107C700040F01003A365E16D41F00102E2650120CF
:107C800070BD00BF01340A005459020838B50368BA
:107C90009A68044602F00300012804D11968C90754
:107CA00001D5002038BD9868104A02409AB99D68F5
:107CB00045F001019960FFF761FB054623681868EC
:107CC000C207EED49A6842F001019960FFF756FBB3
:107CD000431B022BF2D9A06D40F01002A265E16DAA
:107CE00041F00103E365012038BD00BF3F00008083
:107CF00038B50368996811F00405044669D190F815
:107D00005420012A65D0012380F85430FFF7BEFFCC
:107D100000285BD1A26DD10449BFE26DE06522F07D
:107D20000602E265A16D21F4706323F0010242F4C2
:107D300080712368284AA165934208D002F500713A
:107D40008B4204D001F580729168CA0603D1A26DFE
:107D500022F48011A16520491C228B421A6013D0A5
:107D60001E4A934210D0D2F8085115F01F0F02F5A9
:107D7000807209D0956805F01F05052D04D0926822
:107D800002F01F02092A10D1DA68920105D5A16D0F
:107D900021F4405242F48051A1659968002284F890
:107DA000542041F004029A6038BDA36D43F4801260
:107DB000A265C9688B0105D5A36D23F4405242F436
:107DC0008051A165002384F8543038BD84F85450A4
:107DD00038BD022038BD00BF00000450000204502E
:107DE00038B503680446986800F00300012801D004
:107DF000002038BD1A68D207FAD5996801F00D0243
:107E0000012A09D19D68032145F00200986019609C
:107E1000FFF7B4FA054608E0A36D43F01001A16531
:107E2000E26D42F00103E36538BD22689368D8072C
:107E3000DED5FFF7A3FA401B0228F6D9A16D41F069
:107E40001002A265E36D43F00100E065012038BD3A
:107E500090F85430012B10B5044616D0012180F85B
:107E600054106C21FFF7BCFE58B92046FFF7B8FF4D
:107E700038B9A26D22F4885323F0010141F00102C8
:107E8000A265002384F8543010BD022010BD00000C
:107E900010B50446002800F0A680836D43F002016F
:107EA00081656C21FFF79CFE2068C26842F40013D4
:107EB000C3602046FFF794FF2068416821F4FF6209
:107EC00022F0070340F2FF7143600160826822F0F4
:107ED000A0438360816841F000528260C3685A49C0
:107EE0001940C160C26842F00043C360016921F4D7
:107EF000FF6222F007030361416901F040424261E1
:107F0000836903F078418161026A02F0F023036221
:107F1000416A01F0FF224262836A4C4A03F0FF216A
:107F20008162036B1A400263416B494B484A0B4024
:107F30004363816B0A408263C36B23F4FB6121F0CE
:107F40000702C263036E4349424A19400166436E09
:107F50001A404266816E3F4B3E4A0B408366C16EBB
:107F60000A40C266D0F8A030D90CCA04C0F8A020DC
:107F7000D0F8A430D90CCA04C0F8A420D0F8B0308E
:107F8000D90CCA04C0F8B020D0F8B43023F07F1167
:107F9000C0F8B410826802F00303012B02D101681B
:107FA000CA0715D42C4A2D49904220D1886800F088
:107FB0000303012B19D10A68D00716D583F00100FD
:107FC00000F0010222B12648264B81680B408360F5
:107FD0002046FFF705FB0020E06520666066A0658F
:107FE00084F8540010BD012010BD1F491FE08842D5
:107FF000906800F0030012D1012802D11268D10765
:108000000AD419498B6803F00300012801D000202D
:1080100002E00A68D207FAD5C00713D406E00128A7
:1080200006BF106800F00100002058B90B498B68AA
:1080300003F00303012B01D00023BFE70968C90740
:10804000FAD5BBE70123B9E704800080300882E05D
:10805000200882E000F0FF030000045000010450FB
:1080600000030450E01000FE0002045090F8543069
:10807000012B70B504460E4637D0012580F85450C8
:10808000FFF7AEFEA16D40BB21F4885222F002033F
:1080900043F002012368A1659A6822F080410E43F3
:1080A0009E609A6842F0004199604FF47A42996864
:1080B00000290BDA013AFAD1A06D84F8542020F09F
:1080C000120141F01003A365012070BDA36D23F0E0
:1080D000030242F00101A16503E041F01000A06538
:1080E0002846002384F8543070BD022070BD000083
:1080F000024BD868C0F30220704700BF00ED00E0DB
:1081000070B5164604460D46FFF7F2FF00F0070073
:10811000C0F10702031D042A28BF0422062B01D93F
:10812000033800E00020012303FA00F103FA02F310
:108130005A1E013915400E4005FA00F046EA0003C8
:10814000002C4FEA031106DA074B04F00F04C8B203
:10815000E118087670BD04F1604404F56144CAB2C8
:1081600084F8002370BD00BFFCEC00E0420901234D
:1081700000F01F0003FA00F1014840F82210704798
:1081800000E100E04209012300F01F0003FA00F1C2
:108190002032024840F82210704700BF00E100E0A2
:1081A0002DE9F347D1F800C000223CFA02F300F0B9
:1081B000CF80012606FA02F616EA0C0500F0C6800A
:1081C0004B68022B01D0122B14D1D708083702F0CC
:1081D000070850F827404FEA880A4FF00F0909FABC
:1081E0000AF824EA08090C6904FA0AFA49EA0A04B6
:1081F00040F8274054004FF00308076808FA04F9D4
:108200006FEA090803F0030908EA070709FA04FA04
:1082100047EA0A0707605F1E012F03D9112B01D01F
:10822000122B12D1876808EA070ACF6807FA04F709
:108230004AEA07078760476827EA060AC3F3001778
:1082400007FA02F74AEA07074760B9F1030F08D1B6
:10825000C76A27EA0606C3F3C00707FA02F73E43D8
:10826000C662C66808EA06088E6806FA04F648EA96
:10827000060413F0805FC46068D0364C276E47F068
:1082800001062666246E04F0010701979608B71CC4
:10829000019C314C54F8274002F00307BF004FF017
:1082A0000F0808FA07F8B0F1904F24EA080819D02F
:1082B0002A4CA04218D004F58064A04216D004F5E0
:1082C0008064A04214D004F58064A04212D004F56A
:1082D0008064A04210D004F58064A04214BF07243B
:1082E00006240AE0002408E0012406E0022404E059
:1082F000032402E0042400E00524023604FA07F710
:10830000154C47EA080744F82670154E3768EC43C9
:10831000274013F4803F18BF2F43376077689E03D0
:1083200007EA04070E4E48BF2F437760B76813F47F
:10833000801F07EA040718BF2F43B760F6689B0247
:1083400004EA0604064B48BF2C43DC6001322CE7EC
:10835000BDE8FC8700100240000001400004004816
:1083600000040140036919420CBF0020012070473E
:108370000AB18161704781627047000030B50468BE
:1083800006486568890543EA9153284003990343E9
:1083900043EA010040EA0242626030BD009800FCFE
:1083A0002DE9F04104460E4690461D46FEF7E6FFD5
:1083B0000746B8F1000F2DD120688169CB4323F027
:1083C0007F4222F47E01314212D0691CF5D09DB16A
:1083D000FEF7D4FFC01BA842EED90DE06B1C0AD1FA
:1083E0009369D84320F07F4121F47E033342F5D0D6
:1083F0000020BDE8F08145B90123002284F8353022
:1084000084F834200320BDE8F081FEF7B7FFC21BDB
:10841000AA42F1D82268E3E770B504460D46FEF79C
:10842000ADFF23689A69064612F0100038D094F820
:108430003500122807D094F83510522903D094F84B
:108440003520622A12D1586881010FD4596841F44D
:1084500080425A600AE09869800611D46A1CFAD0FA
:1084600035B1FEF78BFF801BA84201D82368F2E7E5
:108470000121002384F8351084F83430032070BDC6
:1084800010212022D961DA615868064901405960FB
:10849000012004230022A36384F8342084F83500EB
:1084A00070BD00BF00E800FE70B504460D46FEF743
:1084B00065FF064623689869820617D42046294638
:1084C000FFF7AAFFA0B95DB9A26B012042F020031B
:1084D0000021A36384F8341084F83500032070BDB4
:1084E000FEF74CFF811BA942E4D9EDE7002070BDE7
:1084F000012070BD704710B50446002842D090F8A6
:1085000035301BB980F83430FFF7F4FF23680220C0
:1085100084F835001A68606822F0010120F070626A
:1085200019601A619968A26821F4004098603AB114
:10853000E16801290CBF42F4004242F404429A600F
:10854000E068022804BF4FF4006058605A6842F0A7
:10855000007141F40040226961695860A0691143CB
:1085600041EA0021E269206AD96040EA020119600B
:10857000186840F001021A6000200123A06384F80B
:10858000353010BD012010BD2DE9F7431D4690F890
:108590003530DDF82890012B0446884617465AD11D
:1085A0000AB9012058E0002DFBD00268926912F44C
:1085B000004250D190F83460012E4CD080F8343015
:1085C00022264FF4105380F83560FF2D826300930C
:1085D00021D8EAB24FF00073FFF7D0FE2E462046B6
:1085E000042100224B46FFF7DBFE28BB2068416ACE
:1085F000013D013E07F8011BADB213D1A5B12046E4
:10860000802132464B46FFF7CBFEA8B900962046A4
:108610004146FF2DDCE7FF224FF08073FFF7AEFEEF
:10862000FF26DCE7002DDAD120461921FFF73CFFB9
:1086300020B1A06B0428B4D003200DE023682022D1
:10864000DA615968054A0A405A60012384F83530D6
:1086500084F8340000E00220BDE8FE8300E800FE5C
:1086600090F83530022B30D090F83530122B2AD0CC
:1086700090F83520222A26D090F83530322B22D09F
:1086800090F83520422A4FF002031ED090F8342093
:10869000012A1AD080F8353003681A6822F00102E6
:1086A0001A601A6822F480521A601A68114319601D
:1086B000196841F001021A60012380F83530002367
:1086C00080F8343001E0022070471846704770B5DA
:1086D00004468AB0002870D090F881331BB980F826
:1086E000803302F089F82546032084F8810355F889
:1086F000100B01F019FC0FCD6E460FC60FCD0FC643
:1087000095E8030086E80300211D0EC9206801F0EA
:10871000EDFB0021206801F00DFC6568234626462C
:1087200000211C36A9420AD0002201203177718431
:108730007077F2777262B26232630131F1E7002240
:108740001C33AA4215D0002183F8C0215A8483F833
:10875000C11183F8C311C3F8C811C3F8CC11C3F811
:10876000D411206802F1400600EB8600013241601E
:10877000E6E704F110060FCE6D460FC50FCE0FC50C
:1087800096E8030085E80300221D0ECA206801F068
:1087900011FC606A0123012884F8813302D120464C
:1087A00000F0E8FBA16A012902D1204600F0F5FBA8
:1087B000206801F0A7FF002000E001200AB070BD92
:1087C00090F88033012B10B504460CD0012084F8BA
:1087D0008003206801F08AFF206801F09FFB0020E1
:1087E00084F8800310BD022010BD90F88033012B67
:1087F00010B504460FD0012084F88003206801F0F2
:1088000093FB206801F041FF206801F07BFF00200E
:1088100084F8800310BD022010BD90F88033012B36
:1088200010B5044609D0012084F88003206801F0C7
:108830004DFF002084F8800310BD022010BD70B5EC
:108840000546C8B201F07F044FF01C0610F0800FFF
:1088500006FB045401D0383401E004F5EE7401F055
:108860007F01C00921706070A260E37000B1E180F7
:10887000022B01D10023237195F88023012A0AD00D
:10888000012185F880132868214601F02DFC002085
:1088900085F8800370BD022070BDCAB210B501F02A
:1088A0007F03044612F0800F4FF01C0000FB0343CF
:1088B00001D0383301E003F5EE73D20901F07F01F6
:1088C00019705A7094F8800301280AD0012184F8A5
:1088D00080132068194601F04BFC002084F88003C7
:1088E00010BD022010BD38B501F07F0104461C25E3
:1088F00005FB0145104605F5EE7285F8DC11536164
:108900000023537093612369D060012B08BF10616D
:1089100094F88003012805F5EC7510D0012084F847
:108920008003DBB2204619B9216801F05CFC02E04B
:10893000216801F023FD002084F8800338BD022067
:1089400038BD38B501F07F011C254D43044638354C
:1089500010466219615553610023936101235370DE
:108960002369D060012B08BF106194F880030128AF
:1089700010D0012084F88003DBB2204619B92168A9
:1089800001F031FC02E0216801F0F8FC002084F8DD
:10899000800338BD022038BD38B50446C8B210F097
:1089A000800F4FF01C0305D001F07F0503FB05434A
:1089B000383303E003FB014202F5EE73012201F0BC
:1089C0007F05C1099A701D70597094F88003904218
:1089D00010D084F880232068194601F0FEFD2DB9DF
:1089E0002068217C04F5617201F0E5FE002084F826
:1089F000800338BD022038BDCAB212F0800F38B5EE
:108A000004464FF01C0305D001F07F0503FB05036E
:108A1000383303E003FB010000F5EE730025D209B3
:108A200001F07F019D7019705A7094F8800301283D
:108A30000AD0012184F880132068194601F0F8FD5E
:108A400084F88053284638BD022038BD2DE9F3470D
:108A50001C2404FB0104383406686569A369804658
:108A6000A068ED1A854228BF05460F4605F10309A7
:108A7000042106F5106A99FBF1F90AEB471ADAF8B6
:108A8000182093B24B450BD2002D29DCD6F8343890
:108A9000012202FA07F723EA0707C6F834781FE035
:108AA000A06961698842EFD20029EDD00D1AA06853
:108AB00098F81030854228BF0546009305F1030C55
:108AC00004219CFBF1F9FAB2E168ABB2304601F047
:108AD00042FCE268A16950194B19E060A361CEE73E
