:020000040800F2
:100000000080002089010008997F00089B7F00087C
:100010009D7F00089F7F0008A17F0008000000006E
:10002000000000000000000000000000A37F0008A6
:10003000A57F000800000000B13A0008B9310008AF
:10004000B13A0008B13A0008B13A0008B13A0008E4
:10005000B13A0008B13A0008B13A0008B13A0008D4
:10006000C12F0008B13A0008B13A0008B13A0008BF
:10007000B13A0008B13A0008B13A0008B13A0008B4
:10008000B13A0008B13A0008B13A0008B13A0008A4
:10009000B13A0008B13A0008B13A0008B13A000894
:1000A000B13A0008B13A0008B13A0008B13A000884
:1000B000B13A0008B13A0008B13A0008B13A000874
:1000C000B13A0008B13A0008B13A0008B13A000864
:1000D000B13A000859290008B13A0008B13A0008BD
:1000E00041140008B13A0008B13A0008B13A0008DA
:1000F000B13A0008B13A0008B13A0008B13A000834
:10010000B13A0008B13A0008B13A0008B13A000823
:10011000B13A0008B13A0008B13A0008B13A000813
:10012000B13A0008B13A0008B13A0008B13A000803
:10013000B13A0008B13A0008B13A0008B13A0008F3
:10014000B13A0008B13A0008B13A0008B52F0008EA
:10015000B13A0008B13A0008B13A0008B13A0008D3
:10016000B13A0008B13A0008B13A0008B13A0008C3
:10017000B13A0008B13A0008B13A000800000000A6
:10018000B13A0008B13A000807B5104B10499A6817
:1001900001908A4201D1D868804700230D4A0E4958
:1001A0009818884204D20D49585898500433F5E7FE
:1001B0000B4B0C4A934203D2002043F8040BF8E7A0
:1001C000019803B05DF804EB00F01ABF00080008C6
:1001D00007B0ADDE0000002000000020B02E0108B6
:1001E0000000002044180020000000000000000073
:1001F00000000000000000000000000000000000FF
:1002000000000000000000000000000000000000EE
:1002100000000000000000000000000000000000DE
:1002200000000000000000000000000000000000CE
:101000002DE9F043AE4DAF4A2B68AF49DFF8F482CB
:10101000002443F0010028600A60AC602E6826F0CE
:10102000A85727F410234FF400602B60E8602A686B
:10103000A64EA74F22F4802129608FB0AC61B76023
:10104000C8F80840C8F80440C8F8004062B6AB6D64
:1010500043F08050A865AA6D02F080510091009B7A
:101060002E6E46F001072F662B6E03F001000190F3
:101070004FF40070019B04F029FDEA6C42F001017D
:10108000E964EE6C0B9406F0010702970126032732
:101090004FF400494FF0904009A9029BCDF82490ED
:1010A0000C970A9603F01AFE494622464FF09040EC
:1010B00003F0FCFEEB6C43F00400E864EA6C854846
:1010C0000B9402F004010391039B0C944FF44073C2
:1010D00009A909930A9603F001FE7E484FF4807136
:1010E000324603F0E3FE22467A484FF4007103F0E3
:1010F000DDFE02F067F940F2FF30099009A94FF0D8
:1011000090400A970B940C9403F0E8FDEA6C42F0CF
:101110000201E964EB6C0A9703F0020004904FF6B9
:10112000FF796D48049B0B9409A90C94CDF8249089
:1011300003F0D4FDEA6C42F00401E964EB6C0A9719
:1011400003F0040005904FF6FF426248059B0992A8
:1011500009A90B940C9403F0C1FDE96C41F008035C
:10116000EB64E86C0A9700F0080206925B48069B65
:101170000B9409A90C94CDF8249003F0AFFDE96C11
:1011800041F08003EB64ED6C0A9705F08000079056
:1011900009A95348079B0B940C94CDF8249003F0B5
:1011A0009DFD43200421224603F058FB04212246E2
:1011B0006FF0010003F052FB28203946224603F06D
:1011C0004DFB17203946224603F048FB0920022137
:1011D000224603F043FB08200221224603F03EFB97
:1011E00022464FF0FF30314603F038FB25202146E0
:1011F000224603F033FB3B4A0B9404274FF0904008
:1012000009A909970A920C9403F068FD4FF4007144
:1012100032463048344D354F03F048FE082003F085
:1012200053FB3349334B34480C60344A34491C6017
:101230002C60046030463C6014600C6001F0A8FE35
:10124000204600F085F9C8F80C60C8F8004010246A
:10125000C8F80840C8F804604FF09040042103F03B
:101260001FFE284E002853D0B3685A0750D4346864
:10127000632CF1D9B16811F00805EDD102F0D6FB6D
:1012800000F00CFC0E4B986D40F001079F659A6DC5
:1012900002F0010408944620089B00F003FC4FF480
:1012A0000041022309910B954FF09040012509A9B7
:1012B0000A930C930D9503F011FDB06824E000BF74
:1012C0000010024000093D00600C002000ED00E02D
:1012D000000000080008004800040048000C004816
:1012E000001C00480000311064110020A8150020E7
:1012F0009C150020B015002094150020B415002086
:10130000AC1500206C0D002040F00807B760A3E783
:10131000B068244D030701D401F00CFE0027012022
:101320006F60EF6001F0E2FC08B90222AA600020C1
:1013300001F0DCFC72B61B4C216841F28736B142E9
:101340000AD8A36813F0020506D117480570A560F6
:1013500062B6206802F04AFB72B6134F0120387063
:1013600062B600F0F5F801F07DFD3A78CAB14FF4AD
:10137000FA7002F0B7FB0D480D4902F06DFB002238
:101380000C490D4807F0BAFD0C490B4807F0D3FD96
:101390000B49094808F0CAF9074807F0D3FD02F0E5
:1013A00041F9FEE76C0D0020681100201C2C01089B
:1013B000282C0108642E01086C130020BC2D0108A4
:1013C000982E01088007054B48BF41F48071D96011
:1013D0009A689207FCD50020704700BF0038004093
:1013E000F8B507460D4601202A2116461C46FFF790
:1013F000E9FF390A0220FFF7E5FFF9B20220FFF703
:10140000E1FF310A0220FFF7DDFFF1B20220FFF712
:10141000D9FF2B210120FFF7D5FF290A0220FFF772
:10142000D1FFE9B20220FFF7CDFF210A0220FFF72A
:10143000C9FF0220E1B2BDE8F840FFF7C3BF0000DA
:1014400030B58BB04FF4806300934C2108233548AE
:1014500002AA03F037FE9DF8080052285BD19DF8E0
:101460000910FF290ED13048028811B2002952DB41
:10147000438818B200284EDB72B62C48026842F44A
:10148000806346E09DF80B309DF80A4001F00F059F
:1014900001F0F00243EA05219DF80C5044EA0210E5
:1014A0009DF80D2005F0F00442EA041202F40063F6
:1014B0001CB20CB142F470429DF80E3005F00F05DD
:1014C00043EA052303F4006425B20DB143F47043ED
:1014D000174C25684DB102B93BB1C918144B80189F
:1014E000002480B289B21C6001E0012222600F2238
:1014F0005043052480116143C0F5F0730A4CC1F3D9
:101500004F119AB22180628072B60848016841F09A
:101510000203036062B6074B4FF4006159610BB0E0
:1015200030BD00BF28000020AC0300205C0C002070
:101530000400002000040140044B5A69120504D540
:101540004FF400605861FFF77BBF70470004014013
:101550002DE9F04FBC4BBD49BD4C4FF6FF7206461E
:1015600000201A8008608DB05A8020602021B94880
:101570004FF4E07208F086FA002E40F01A82B64D61
:10158000DFF8E482EF6C47F00203EB64EA6C02F0F0
:1015900002000390039AE96C41F00404EC64EF6CE0
:1015A00007F004030493049AAA6DAC4F42F4804000
:1015B000A865AD6D099605F480414FF420444FF0C5
:1015C000050905914FF0030A07943846022407A93C
:1015D0000125059B0894CDF828A0CDF82C9003F0A8
:1015E0007DFB4FF48043384607A907930895099679
:1015F0000A9603F073FB7A6942F48040786107A988
:1016000040460794089509960A9603F067FBD8F8B8
:1016100014109348934A21F002034FF482714FF063
:101620000A0CC8F814304FF0080B41604FF4006307
:101630004FF40071C0F82CC00260C3608161866005
:1016400006614661C6610662466286620663C0F84C
:1016500034B0CDF800C0019205F0C4FF01980268D3
:1016600042F040030360D8F8141021433220C8F838
:10167000141002F037FA786920F480427A6111215F
:101680002120FFF79FFE962002F02CFAB921284670
:10169000FFF798FEFF212046FFF794FE83212046A6
:1016A000FFF790FE57212220FFF78CFE284602F01C
:1016B00019FAB1212846FFF785FE31462046FFF78B
:1016C00081FE12212046FFF77DFE12212046FFF702
:1016D00079FE12212046FFF775FEC3212046FFF751
:1016E00071FE44212220FFF76DFE284602F0FAF930
:1016F000B4212846FFF766FE21462046FFF762FE2A
:1017000040212046FFF75EFE31462046FFF75AFE95
:101710002A212046FFF756FE2A212046FFF752FED7
:1017200020212046FFF74EFE91212220FFF74AFE9E
:10173000284602F0D7F9B6212846FFF743FE3821A4
:101740002220FFF73FFE284602F0CCF9B0212846C0
:10175000FFF738FE68212046FFF734FEE3212846D4
:10176000FFF730FE2F212046FFF72CFE1F212046D9
:10177000FFF728FEB5212846FFF724FE294620461C
:10178000FFF720FE29462046FFF71CFE6721204672
:10179000FFF718FEC0212846FFF714FE70212046EF
:1017A000FFF710FE70212046FFF70CFE2946204669
:1017B000FFF708FE3C212046FFF704FEC821204623
:1017C000FFF700FE59462220FFF7FCFD284602F0F5
:1017D00089F9C2212846FFF7F5FD31462046FFF77B
:1017E000F1FD59462046FFF7EDFD04212220FFF7C9
:1017F000E9FD284602F076F9CC212846FFF7E2FD04
:1018000049462220FFF7DEFD284602F06BF9E02171
:101810002846FFF7D7FD29462046FFF7D3FD21468E
:101820002046FFF7CFFD51462046FFF7CBFD494646
:101830002046FFF7C7FD0E212046FFF7C3FD2221FA
:101840002046FFF7BFFD11E0AC0300202802002076
:101850002402002064000020001002400004004820
:10186000F80B0020003800400008004832212046D4
:10187000FFF7A8FD3B212046FFF7A4FD5C21204691
:10188000FFF7A0FD54212046FFF79CFD4C21204688
:10189000FFF798FD41212046FFF794FD3D212046AA
:1018A000FFF790FD37212046FFF78CFD31212046C0
:1018B000FFF788FD21212046FFF784FD29462046B9
:1018C000FFF780FD21462046FFF77CFD514620466C
:1018D000FFF778FD49462046FFF774FD0E212046AC
:1018E000FFF770FD22212046FFF76CFD32212046D4
:1018F000FFF768FD3B212046FFF764FD5C21204691
:10190000FFF760FD54212046FFF75CFD4C21204687
:10191000FFF758FD41212046FFF754FD3D212046A9
:10192000FFF750FD37212046FFF74CFD31212046BF
:10193000FFF748FD21212046FFF744FD31462046B0
:10194000FFF740FD29462046FFF73CFD284602F000
:10195000C9F83A212846FFF735FD55212046FFF703
:1019600031FD36212846FFF72DFD31462046FFF791
:1019700029FDB0212846FFF725FD99212046FFF7D4
:1019800021FD29462046FFF71DFD23212846FFF7AC
:1019900019FD29212120FFF715FDDDF800C0604663
:1019A00002F0A0F8344800F069FF21202221FFF75F
:1019B00009FD324D4FF48066012707962846002620
:1019C00007A9089709960A9603F088F92C4B0997FE
:1019D0004FF40064284607A90893079403F07EF9A2
:1019E0004FF44071122003220791089004242548E7
:1019F0000A9207A90B94099703F070F9224B996D8D
:101A000041F4001098659A6D204902F40014069480
:101A10001F4C069B1F4BA660204684E80A00E76027
:101A200026616661A661E661266203F002FB31462B
:101A3000204603F0B3FB6B6923F480616961C82021
:101A400002F050F8686940F480626A610A2002F08E
:101A500049F86B6923F4806169610A2002F042F859
:101A600068690D4B40F480624FF480716A61C3F87D
:101A700084110DB0BDE8F08FF9F9F90000080048B5
:101A800000002110000400480010024000540040F3
:101A9000280000209129700000E100E0212013219E
:101AA000FFF790BC10B51D4B9AB018603C22002186
:101AB00004460BA807F0E6FF19494FF080400B9051
:101AC0000BA80E9105F092FE00211022684607F047
:101AD000D9FF4FF4805269460BA8009205F0B4FF7D
:101AE0000BA805F06BFE00211C2204A807F0CAFF1A
:101AF000042140F6C410602344430891002204A945
:101B00000BA80493059406F0CDF80BA805F0E5FDAD
:101B10000BA8002106F038F81AB010BD0000002014
:101B200090D003002DE9F84FDDF830800E9C0B9F1C
:101B3000334E4FF0010A81468B460AFA08F00A99A3
:101B400000F1FF3A00258D421BD004370236102DDC
:101B500017D057F8040CC0F3423E000C00F0F80018
:101B60004EEA000006F8020C57F8040CC0F3C40C4F
:101B7000400900F0E0004CEA000006F8010C0135D5
:101B8000E1E709F1FF310BF1FF3552185B1996B20D
:101B90009DB232462B4648465946FFF721FC2C2180
:101BA0000120FFF70FFC4846594632462B46FFF707
:101BB00017FC01202C21FFF705FCF4B10D9810F85B
:101BC000017B00250D9027FA05F606EA0A010C4E66
:101BD0004FEA410B16F811105E440220FFF7F2FBAA
:101BE000454402207178FFF7EDFB072DC8EB040494
:101BF000E3D8002CE7D1BDE8F88FBDE8F88F00BF2F
:101C0000080000202DE9F84F4FF00109064609FAB7
:101C100000F00F46144600F1FF39F4B117F801AB9C
:101C200000252AFA05F303EA0901DFF834804FEAB8
:101C3000410B022018F81110FFF7C4FB08EB0B0250
:101C400002205178AD19FFF7BDFB072DC6EB040448
:101C5000E3D8002CE5D1BDE8F88FBDE8F88F00BFD0
:101C6000080000202DE9F84F15460E46BDF82880E3
:101C70004FEA104A1F4605F1FF39C0F342330AF01C
:101C8000F80106F1FF3B43EA010A440907EB0B03A5
:101C900008EB0901C0F3C4021FFA83FB1FFA81F9A4
:101CA00004F0E00029464B4642EA00045A4630461A
:101CB000FFF796FB2C210120FFF784FB29463046D5
:101CC0005A464B46FFF78CFB01202C21FFF77AFB8D
:101CD00008FB07F70025BD4209D051460220FFF757
:101CE00071FB02202146FFF76DFB0135F3E7BDE8EC
:101CF000F88F000010B5264B1A6886B004467AB1FA
:101D0000244900200860186023484FF4C07200F195
:101D1000400107F0EBFD21482021402207F0B2FEF0
:101D20000A2C17D11A4B1C4A012018604FF0390EAB
:101D300040F2A7104FF4A0738DE809404FF4E07112
:101D400000200392049105900146154A034600F0D5
:101D5000CBF91AE00D2C07D110482021402206B003
:101D6000BDE8104007F08EBEA4F120035F2B0CD815
:101D7000084A094910680B1801303E2883F8804151
:101D8000106002D9024901220A6006B010BD00BFEE
:101D9000240200202802002064000020E40100202A
:101DA000F9F9F90038B504464518AC4204D014F8E6
:101DB000010BFFF79FFFF8E738BD00000FB42DE9D6
:101DC000F04F87B0109D002D00F0538111AB0193AF
:101DD0002878002800F04D8129464E1B0C4611F84A
:101DE000012B252A08D128463146FFF7DBFF25784D
:101DF000252D04D02546EBE7002AEED1F3E7002796
:101E0000019B601C4FF0200CB846B9464FF00A0BFE
:101E10003C46054615F8012B632A3ED01FD8392AC7
:101E200014D8302A2FD22A2A5CD004D8252A40F090
:101E30001A81019315E12D2A04D1002700E01346F1
:101E40002846E6E72E2A40F00E8139E0482A52D093
:101E5000582A40F0088101934FF00108B4E0702A3D
:101E60000FD005D8642A20D0682A40F0FC8044E0D6
:101E7000752A00F0A380782A03D0732A40F0F380FB
:101E80003DE00193A0E003D1002C08BF4FF0300CDF
:101E90000A2101FB0424303CD2E7191D06A81B6867
:101EA000019140F8183D6846DBE018681E1D0028C7
:101EB000019680F286804742009701200A238AE03B
:101EC00041782A2940F0CF808278732A04D0482AAA
:101ED00002D0682A40F0C780D3F80090851C0433F4
:101EE0000127ADE74078732840F0BD80D3F800901B
:101EF00002270433A4E74FF001084FF0100B1A1D1E
:101F0000D3F800A0032F25D801A050F827F000BF78
:101F1000211F00082F1F0008351F00083F1E000862
:101F2000019200261AF80610A9B10136FAE70192CB
:101F30004E4610E09AF800000192002840F094808C
:101F40004E480121FFF72EFF4B4609F1FF39002BC8
:101F5000F6D126E00192BBF1100F04D05046314675
:101F6000FFF720FF1DE00024B4423FF431AF1AF820
:101F700004703A0907F00F07B8F1000F05D0B8F167
:101F8000000F0CD0DFF8FC9001E0DFF8F49019F8B6
:101F90000200FFF7AFFE19F80700FFF7ABFE0134B0
:101FA000E2E7B4427FF614AFA41B002C3FF410AF5D
:101FB00032480121FFF7F6FE013CF6E71E1D1868C6
:101FC00001960090002079E7019B1F68191D01917F
:101FD000009700201023009F012603FB06F2BA425F
:101FE00001D938B911E0B2FBF3F1B142F9D1013CAA
:101FF0001646F2E7013CBCF1300F05D12D228DF8D9
:1020000008200020012101E001200021A21E0D2A4C
:102010000DD804F1FF3E00220DF1080A0AEB010978
:1020200009F802C001327245F6D10919013928B107
:1020300006A842182D2002F8100C013102A8AEB1FA
:10204000B7FBF6F2B2FBF3F403FB1422B8F1000F76
:1020500001D10B4C00E00B4C125DB6FBF3F6425481
:10206000EBE7012102E0019307480521FFF79AFE03
:10207000AEE607B0BDE8F04F04B070470D2C010884
:10208000189D0008299D00083A9D00080005000DD4
:1020900008282DE9F04123D8124C54F82050FDB106
:1020A000002495F802C02046E6B2B34213D0165D74
:1020B000AF88BE4211D3B5F8068046450DD8F61B51
:1020C000AF6817F83660871901348F4208DC664420
:1020D000801980B2E8E7BDE8F0810020BDE8F0811A
:1020E000BDE8F081DCD100082DE9F04F8DB000058E
:1020F0001F464FEA105ABDF86830BDF858400993A2
:10210000BAF1080F0A920B9160D8324951F82A307F
:10211000002B5BD0BDF85C20BDF860B093F802C026
:10212000DDF86490D519AEB208960BEB04001E786A
:102130001FFA80FB3D460999199BCA1890B21FFAF5
:1021400089F188423ED0234A19F8013B52F82A20EF
:1021500091888B4202D3D088834209D9093B012B55
:1021600030D8A419A4B2A3195B452BDC3D46E2E7A5
:102170005B1A926812F8338002EBC301089A486830
:1021800005EB0803934205DDA419A4B2A119594532
:1021900018DC3D4602230AAA0121039018FB06F031
:1021A000009301920291049042462846214633460C
:1021B000CDF81CC0FFF7B6FCDDF81CC0E044454478
:1021C000ADB2B8E745EA04442046FFE70DB0BDE8EC
:1021D000F08F00BFDCD100082DE9F74F03F1FF3A83
:1021E0009DF8309006460F4690469B461FFA8AFAA5
:1021F0001C46002519F0010F09D0012304EB080249
:1022000000933046394692B22B46FFF72BFD09F07A
:102210000200C1B249B1012305EB08020093304628
:10222000394692B22346FFF71DFD09F00400C1B202
:1022300051B10123791B04EB08020093304689B2A7
:1022400092B22B46FFF70EFD09F00800C1B251B162
:102250000123391B05EB08020093304689B292B284
:102260002346FFF7FFFC09F01000C1B249B101237A
:10227000C4EB080200933046394692B22B46FFF772
:10228000F1FC09F02000C1B249B10123C5EB0802FD
:1022900000933046394692B22346FFF7E3FC09F03B
:1022A0004000C1B251B10123791BC4EB0802009375
:1022B000304689B292B22B46FFF7D4FC19F0800F5A
:1022C0000AD00120391BC5EB0802009089B23046C4
:1022D00092B22346FFF7C6FC0FFA8AF3B3EB450F21
:1022E00006DBAAEB450202F1FF301FFA80FA15E087
:1022F000C4EB0B01B3EB410F08DA0AEB440A0AF115
:10230000FF33611E1FFA83FA8CB209E0621B501E74
:102310000AEB400C013C1FFA8CFAA4B20135ADB2B5
:10232000A5427FF667AFBDE8FE8F00002DE9F04FB4
:1023300090F800B089B00446154699462BF0800B02
:102340000E4600294CD0002A4DD0BBF1050F00F0FD
:102350001682B0F818A00AF44043B3F5804F10D0AD
:10236000B3F5004F18D1C788CDF8009039465046D4
:102370003246EBB2FFF78AFEC0F34F00C0EB5707BF
:102380000BE0C788CDF80090394650463246EBB294
:10239000FFF77CFE3F1A00E000270AF44051B1F538
:1023A000805F11D0B1F5005F20D14FEA0A5A4FEAA1
:1023B0001A5A574A238952F82A0090F801804FEAA6
:1023C0005801C1EB530813E04FEA0A534FEA135A7E
:1023D0004F48228950F82A104B78C3EB020807E0D7
:1023E00088460F4604E09046174601E04FF000088B
:1023F000BBF1060F00F23782DFE81BF02D02190057
:1024000007001900BA01C1011602207B012807D17B
:1024100020896188A288E38800906069FFF722FC28
:10242000002E40F07681A07A002800F01C82237BE9
:10243000E0886188A288012BE37A6FF0010A1944D1
:102440000AFB03032089009064D0606989B29BB2C3
:10245000FFF708FCE37A2089A28861880AFB030061
:1024600080B29A180090606992B2FFF7FBFBE18896
:102470006288E37A8818C11A2089A2880AFB0300BF
:1024800080B29A180090606989B292B2FFF7EAFBB5
:10249000E37AE0886188A28859180AFB0303A07ACE
:1024A0000090206989B29BB2FFF7DCFBE37A628877
:1024B000B4F808C0B4F806E0A07A9918A288009091
:1024C00062440AFB03E3121A89B2206992B29BB2FA
:1024D000FFF7C8FBE07AA288B4F808C06188A37A45
:1024E00082180AFB00C080B20090206992B2FFF708
:1024F000B9FB6288E188E07AB4F808E0A37A891829
:10250000A28882180AFB00E0C91A80B220E000BF4E
:10251000DCD10008206989B29BB2FFF7A3FBE37A04
:102520002089A28861880AFB030080B29A18009073
:10253000206992B2FFF796FBE1886288E37A8818F7
:10254000C11A2089A2880AFB030A9A181FFA8AF086
:102550000090206989B292B2FFF784FBE37A012BE5
:1025600040F28C806188A2884FF0C00B59189A18ED
:10257000CDF800B02069CDF81CB089B292B2FFF757
:102580002BFEE0886188E37A4218A0884FF0300B78
:10259000D11ACDF800B01A1889B2206992B2FFF7AB
:1025A0001BFE2289A088E37A61888018421E4FF0C2
:1025B0000C0A5918D21ACDF800A0206989B292B23B
:1025C000FFF70AFEE1886088E37A0A18D11AA0882A
:1025D00022898018421E0320D21A0090206989B2F5
:1025E00092B2FFF7F9FD237BDDF81CC0012B45D02B
:1025F000E37AA07A6188A288CDF800C059189A18A9
:102600001B1A89B2606992B29BB2FFF7E5FDE188BF
:102610006288E37A8818C11AA288A07ACDF800B03F
:102620009A181B1A89B2606992B29BB2FFF7D4FD67
:102630002289A088E37A61888018421EA07ACDF8AA
:1026400000A05918D21A1B1A89B2606992B29BB2C3
:10265000FFF7C2FDE1886288E37A8818C11A2289EF
:10266000A0888018421EA07AD21A1B1A032000905C
:10267000606989B292B29BB2FFF7AEFD002E44D0E2
:10268000002D42D0227B6369B4F804A0B4F806E0C0
:10269000208B012A22690EBF194611461A4663880B
:1026A000B8F1020F2CBFC2440AF1020A022F2CBF5C
:1026B000DB190233C7EB0E071FFA8AFC1FFA87FAF1
:1026C000A77A9BB227B107F1020E4FEA4E0E01E046
:1026D0004FF0060ECEEB0A0A1FFA8AFEB4F808A0E5
:1026E000C8EB0A081FFA88F817B102377F0000E02C
:1026F0000627C7EB0807BFB28DE800500297039684
:102700000495CDF81490FFF7EFFCA17E002936D197
:10271000A9E0002D3FF487AEA27AB4F804A0208B84
:102720006FF0010E0EFB02F31FFA83FE63881FFA9F
:1027300088F1D31852448A1892B20092E2881FFAA4
:1027400087FC72446344CCEB020C1FFA8CF20192BA
:10275000228903969644C1EB0E018AB20292049537
:10276000CDF81490216962699BB2FFF7BDFC5AE66F
:10277000E27A01212173002A7FF459AE6BE0A27E38
:102780006088B4F804C0002A6DD02378052B08D1E6
:10279000B9F1000F05D035490B6813B13449096808
:1027A00011B9344B1968344B8A425CD26DB111B205
:1027B0000F0107EB81015F18B968042707FA01F1DF
:1027C000A94250D1AD0800D056B916B2350105EB7B
:1027D0008607D91901268D6806FA05F7CE68BDB2BD
:1027E00012B2110101EB82029F18B4F806E09A5868
:1027F000B9687B68248902918DE860000CEB540C69
:102800003C6900EB5E00039402FB03F4ACEB530E57
:102810006143A0EB5200049180B21FFA8EF192B294
:102820009BB2FFF77FF91EE0FF25A2886188E37A5B
:1028300000952069FFF7D0FC227B012A13D0A37AF0
:102840008BB1E07A6188A2880095C31A9BB2606957
:10285000FFF7C2FC07E020896188A288E388009026
:102860002069FFF7FFF909B0BDE8F08F2C020020C6
:10287000340200204C260108D8FF000810B588B0AB
:10288000044600211C2201A807F0FCF803230C4891
:102890008DF804304FF4A0710123ADF80A104FF405
:1028A000F07200210460ADF80C208DF8103001A802
:1028B0000A460B460594FFF739FD08B010BD00BF6E
:1028C0003002002000210A460B46FFF72FBD000012
:1028D000064B1868026822F001010160036823F0CA
:1028E000050242F001010160704700BFB00B0020FB
:1028F000084B1868828C82B0D1B28DF8071003683B
:1029000023F001020260016841F00503036002B098
:10291000704700BFB00B00200D4B1B681A6822F0F7
:10292000010110B5196004090A491A8A31F8141016
:1029300000F00F00013841FA00F1D2B24800510016
:102940004143D960186840F001021A6010BD00BF11
:10295000B00B002062290108144B202213B5C3F8E4
:1029600084211348134A036810684FF0FF3119623D
:10297000B8B9114A1168B1F5967F12D20F490868AB
:102980009C8C0F4BE4B21C5408684FF496730130D2
:10299000B0FBF3F403FB1400086011684B1C1360D8
:1029A00003E09B8CD8B28DF807001CBD00E100E06D
:1029B000B00B0020A80300209C0300203802002058
:1029C0006C020020F0B503460D18ADB29CB2A542D2
:1029D0001ED0104C25682DB9B2F1FF3FF9D0013A55
:1029E000F7D1F0BDA2B172B62668771E276062B635
:1029F000094C0A4E2568775D03F8017B25686E1C3B
:102A00004FF49675B6FBF5F705FB17652560DBE718
:102A1000F0BD00BF9C030020680200206C02002073
:102A200038B505460C46C9B1FFF752FF0C4B186884
:102A3000013CA4B24FF6FF72944206D0C26912065E
:102A4000FCD515F8011B0185F2E705480168CB6943
:102A50005B06FCD5BDE83840FFF74ABF38BD00BF74
:102A6000B00B00202DE9F743994D9A4BDFF86C929B
:102A7000994C002628224FF0020831460746284686
:102A80001E70A9F8008006F0FDFF1120FFF744FF3B
:102A9000606920F480516161642001F023F862696B
:102AA00042F480536361284641464FF48032FFF779
:102AB00089FF28786C78A9F800803B2802D03F284D
:102AC00040F0E9808DF804608DF8056000263546F9
:102AD00014F0F00F66D004F01000C2B2DAB1DFF8E3
:102AE000FC81DFF8EC91B8F80030012109EB03001C
:102AF0004FF0FF32FFF766FF012E07D8B8F800202D
:102B000002A9881919F8023000F8043CB8F800103E
:102B1000481CA8F8000004F02002D3B27BB1DFF813
:102B2000BC816B48B8F800104FF0FF32401801210B
:102B3000FFF748FFB8F80020531CA8F8003004F055
:102B40004001C8B278B1DFF89481614BB8F8002039
:102B5000012198184FF0FF32FFF734FFB8F800104A
:102B6000481CA8F80000E2B200241106B0D5DFF836
:102B70006C81574CB8F800300121E0184FF0FF325B
:102B8000FFF720FFB8F800100136481C645CA8F875
:102B90000000F6B225B914F00F0518BF012597E71C
:102BA000012595E74B4901260E70494E727812F0C7
:102BB0000F010CD0494C23884FF0FF32F018FFF77B
:102BC00001FF7078228800F00F018B1823804149A3
:102BD0000220087035B93F4B9DF8050003221A709A
:102BE00098B917E03D4C3A4B2288012198184FF0D4
:102BF000FF32FFF7E7FE2088411C8AB222800021C5
:102C00009142E8D24B1CD9B2FAE7802859D004206F
:102C1000187040E09DF80430112B00D00BB9002F44
:102C200053D03C092E4D07F00F0135F81420481EF3
:102C300042FA00F41A0903F00F0335F81250591E36
:102C400045FA01F08442C8BF8DF804709DF8045025
:102C5000244885F01003D943FF24102204708570A6
:102C6000C170214C1B4D42700421FFF7D9FE052095
:102C7000287002214FF0FF322046FFF7A3FE227892
:102C8000FF2A08D1617811238DF8043029B1102969
:102C90000CD006202870002018E007212970A01C05
:102CA00001214FF0FF32FFF78DFE0AE008222A7063
:102CB000A01C02214FF0FF32FFF784FEA3788DF8AD
:102CC00004309DF80400FFF727FE0120BDE8FE83D5
:102CD0003C0200206402002000080048A4030020F9
:102CE00062290108A003002098030020F0B587B0F6
:102CF000002873D00025072302244FF48077032691
:102D000001A94FF090400593029401970395049612
:102D100001F0E4FF4FF40070019001A94FF09040E2
:102D20000294039501F0DAFF03943D4C04954FF4AF
:102D3000805101220191204601A9029201F0CEFFAB
:102D40006369384923F4805060610A6E42F480441C
:102D50000C660B6E344C03F48040009029464822E8
:102D60002046009B06F08EFE304927620C204FF46F
:102D700040524FF48063606120462160E26023612D
:102D800005F048F821680A6822F001030B60086822
:102D900040F480520A604B6843F4006048608A68DF
:102DA00042F4401343F4026088600E820A6842F0E5
:102DB00020030B60252001F087FD1D491D481E4A98
:102DC0001E4B0D602168056015601D60086840F0AD
:102DD00001020A609620FFF745FE1EE0104C2520F8
:102DE00001F07EFD63690F4923F4805060610A6E33
:102DF00022F480430B664FF440700321019002914E
:102E00004FF0904001A901F069FF4FF48052204635
:102E100001A9019201F062FF012007B0F0BD00BFDF
:102E20000008004800100240B00B002000380140AC
:102E3000A803002068020020380200209C03002024
:102E4000BFF34F8F054A064BD16801F4E06040EABA
:102E50000301D160BFF34F8FFEE700BF00ED00E03C
:102E60000400FA0570470000024B14201860FEF7BA
:102E700019BE00BF680D0020002828D01548026840
:102E800047F22F539A4244F61F61134B0CD81A682D
:102E90008A4209D8114900220A60026010481A606B
:102EA0000368462B10D1704718680B4A88420949BD
:102EB0000A484FF0000303600B60136004D8084A0F
:102EC0001168462900D17047054A46201060FEF778
:102ED000E9BD00BFB4150020AC150020A8150020E6
:102EE000680D002030B5002287B04FF090404FF4BD
:102EF000004101F0DBFF0320012300244FF40045D3
:102F0000049001A94FF0904002930195039401F0C1
:102F1000E5FE294622464FF0904001F0C7FF0448E5
:102F20004FF40071224601F0C1FF07B030BD00BF71
:102F30000008004808B572B6FFF7D4FF03484FF405
:102F40008071002201F0B2FFFFF77AFF000800480D
:102F500030B587B0044600208025012303900490FB
:102F6000059001A908480195029301F0B7FE0648B3
:102F7000294604F0010201F099FF14B10349192216
:102F80000A7007B030BD00BF00080048901500204F
:102F900040B1064801684FF47A72B1FBF2F3D800F1
:102FA00001F0ACBC024B1860704700BF600C002001
:102FB00010E000E0014802F01CBB00BF9C0D0020A7
:102FC00008B5174B5A69510729D5042159614FF0AB
:102FD000904001F065FF134948B10023012048608B
:102FE0000B608B60CB60BDE80840FFF745BF4868C9
:102FF000A8B18B68DA0606D5096842F20F708142E3
:1030000005D9FFF797FF0A68B2F57A7FF9D2054B29
:10301000054900225A60086840F480220A6008BD11
:10302000000401406C0D00205C0C002030B5ABB0FA
:103030000024012340255C48069305A901940794C8
:103040000894059501F04AFE22465748294601F0AA
:103050002DFF564802684FF47A71B2FBF1F40A234F
:103060005C4340F6B830B4FBF0F20392039C611E5F
:103070000391002CFAD10B202023069005A94A4881
:10308000059301F02BFE40F61C422146029210A847
:10309000682206F0F7FC2146454C18220AA806F0E3
:1030A000F1FCD4F8881041F04053C4F88830E06C4B
:1030B00040F40052E264E46C04F400510491049B77
:1030C0003C4B042001241C21109315904FF4805296
:1030D000802310A82091179418941A941B941E9280
:1030E0001F94219300F00AFD014600284FD110A83B
:1030F00001F06AFB00284DD106210E220C910D90A3
:103100000E900F900AA910A80A920B9400F0AAFE44
:10311000002842D110A801F099F9002840D142F2CC
:10312000107110A800F00CFE10A801F005F9800540
:103130000DD510A800F092FE01900198029B584313
:1031400000FA04F04FF6F072B0FBF2F1019110A812
:1031500001F02CFA10A801F049FA1548C36A43F4AB
:103160000052C262C16A21F40053C362C26C22F4ED
:103170000051C16460200022059003230A48069391
:1031800005A90792089201F0A9FD01980AE06FF0E5
:10319000010007E06FF0020004E06FF0030001E0BF
:1031A0006FF004002BB030BD00080048600C002018
:1031B000001002400000045070B5704B70491A684E
:1031C0000878083298B01A6028B1431ED8B2087047
:1031D00008B9FFF7BDFE6B4A116879B16A486B4ABE
:1031E00003680833036001681368994206D3684A8C
:1031F000116841F400631360002202606548416871
:1032000000293AD00368083303608268016812F02D
:10321000100F23D0B1F5FA6F09D98468E40706D4FA
:10322000826842F0010181605B48FEF7C7FD594C9E
:10323000206841F28833984209D9A268900706D4E1
:10324000A16841F00200A0605448FEF7B7FD236872
:10325000504842F2107293420FD905E0B1F57A7FDF
:103260000BD98368D90608D481684A0705D48368D6
:1032700043F004028260FFF735FE404A484B106875
:103280001968884251D94748017800294DD01868FB
:10329000411C4AD03F4E7668002E46D115684249FF
:1032A00005F51C54103408A81C6006F0A7FCFFF7B5
:1032B000BDFE4FF47A720A25B0FBF2F3B3FBF5F1D1
:1032C00005FB1134303464238DF82F40B0FBF3F448
:1032D000B0FBF5F0B4FBF5F1B0FBF5F32E228DF861
:1032E000302005FB114205FB130530358DF83250B7
:1032F0002E4D2F498DF834603032562408A88DF8B1
:1033000031208DF8334006F053FC0FCD01AC0FC4D3
:1033100095E8070084E8070008A806F0CDFC08A996
:1033200082B2334601A8FFF701F82249224B0A680E
:1033300008320A600868984201D9FFF7FBFD1F4870
:10334000016844F61F62914207D80368083303609E
:103350000068904201D9FFF787FD194B196847F2C1
:103360002F52914208D81868083018601B689342A1
:1033700002D90020FEF796FB18B070BDB8150020EA
:1033800090150020B01500209C15002098150020F5
:103390005C0C00206C0D0020E02B0108F32B0108D1
:1033A0006411002068110020FF2B01088429010806
:1033B0000F2C0108A8150020C0270900AC1500201B
:1033C000B41500202DE9F041B4B0182001240225E5
:1033D00004274FF480334FF0030812900726684407
:1033E000079306940F95CDF8408011941396149589
:1033F000159702F0EBFB1299164A159BCDF8088041
:103400004A43B2FBF3F0144A0F21002310600191EC
:103410000DEB0700394603930493059303F01EF95F
:103420004FF4005016904FF080620C214FF480133F
:1034300016A82D921791189619951A951B9303F0BB
:10344000B7FD16A81694209403F0B2FD34B0BDE881
:10345000F08100BF00127A00600C002030B500231C
:1034600093420ADACD5C054C85EA1025013334F825
:10347000154084EA002080B2F2E730BDA02901089F
:1034800003460A464FF6FF701946FFF7E7BF0000F4
:1034900030B587B0044601F0DBFA2A4B2A490020F8
:1034A0004FF400421A6102900D68284B15F4807F9A
:1034B0004FF6FF7218880CD1904204D00105CD0A56
:1034C00005F1006000E0224884422CBF0222012264
:1034D0000BE0904204D00505EB0A03F1006100E027
:1034E0001B498C422CBF01220222184B03921888E0
:1034F0004FF6FF72904208D00305D80A00F100652C
:10350000AC4206D204F1784204E012498C42F9D967
:103510004D1C621BD10A0491012502A801A9059541
:1035200001F08CFB0C4D0D4B9D4207D22146002033
:10353000F5E8022301F0ECFA0834F4E701F09AFA16
:1035400007B030BD0020024000000140E075FF1FC1
:1035500000000808FFFF0708B0030020B00B0020A0
:103560002DE9F8430E461546002A45D020F4FF64A5
:1035700024F0070484421DD0C4EB0009DFF87C80EE
:10358000C9F50067BFB2AF4228BF2F4621464FF4AE
:103590000062404606F0AAF931463A4618FA89F028
:1035A00006F0A4F92046FFF773FFF619ED1BADB244
:1035B00004F50064B5F5006F0DD931464FF4006293
:1035C0000E4806F093F9204606F50066FFF760FF07
:1035D000A5F50065EBE77DB121464FF40062074891
:1035E00006F084F931462A46044806F07FF9204661
:1035F000BDE8F843FFF74CBFBDE8F883B0030020F7
:1036000000B5ADF6040D00230548009369464FF45C
:103610000062FFF7A5FF01B00DF5006D00BD00BF12
:10362000000800082DE9F043ADF6340D00244FF4F6
:103630007F43ADF81E40ADF82040ADF82230ADF824
:103640001E40ADF82040ADF8223009948DF81D40A1
:103650000A940B9405F028FBAD4804609DF81D000A
:10366000002105F045FCADF81E00F0B9A94CFDF7AE
:1036700063FF21684F0306D5206820F480230120D2
:103680002360FFF7F9FB2268A24F5605E6D53E6896
:10369000A14926F480643C60086847F22F539842A1
:1036A000DCD80120FFF7E8FBD8E70120FFF7E4FBB7
:1036B0000021ADF82010BDF81E60B7B217B946F66C
:1036C000821565E1954C2278E02A40F053816378B9
:1036D000042B45D00CD8012B63D073D3022B40F0C0
:1036E00055819DF81D5045F080008DF81D000CE1BE
:1036F000412B4CD0FF2B5FD0402B40F04781884DB1
:103700004FF0FF362E6094F805C0A07994F807E0DA
:10371000217A677AA27AE67A237B657BBDF81E80E0
:10372000009504F10E0904EB85040E341FFA88F8A5
:103730000394A8F10E04A4EB8505CDF80490EC00E9
:103740004FF00409CDF80890049440EA0C2041EAB7
:103750000E2142EA072243EA0623FEF7E3F9D4E00A
:103760006579A179E079237A6E4E43EA002441EA33
:10377000052744EA0742B24202D14EF61166C2E082
:103780004FF47F45ADF8225046F6842500E1BDF8A0
:103790001E70BAB2561F0420611DF200FEF732FA05
:1037A000F6E0614B19689F8898790722ADF82020D0
:1037B0002160A780A071A8E0BDF81E0081B2ADF81D
:1037C0002010A2E02179ADF81E10BDF82260B7B23A
:1037D000B7F57F4F00F0D1806279531F092B00F2BB
:1037E000D580DFE813F00A001C0092003F005F0064
:1037F000AB00D300D300D300BC00BDF81E50AAB26A
:10380000052A40F0C080A379E179277A647A41EAF9
:10381000032644EA072040EA0645099575E0BDF80D
:103820001E0083B2032B40F2AE80099FA679E57992
:103830003E4945EA0622D4198C4240F2A180042177
:103840003B48FFF71DFE3B4B1F88874201D1FFF726
:10385000D7FEBDF81E003849C61EB2B22046FFF79B
:103860007FFE52E0BDF81E2093B2092B40F08B8002
:10387000099AA779E079257A617AA67AE37A40EA0B
:10388000072743EA062641EA0525B81846EA054116
:10389000FFF7F6FD227B647B44EA022188427FF435
:1038A0000EAF32E0BDF81E0087B2052F6BD11B4C66
:1038B00000214FF400620CA806F0E4F8A579E6793F
:1038C000227A637A46EA052043EA022141EA004768
:1038D0000CA8042140F8047FFFF7D2FD0CA9ADF835
:1038E00030004FF400621348FFF73AFE9DF81D4088
:1038F0000AA844F08005FF2108228DF81D5006F02B
:10390000C1F84FF47F46ADF822604FF410453FE018
:10391000A01500205C0C0020B4150020640C0020D1
:1039200064110020010000044C2C0108B02E010895
:1039300004080008000800086C0C0020BDF81E50A8
:10394000A8B205281FD1A679E179277A647A41EADD
:10395000062344EA072242EA03450020A84704213F
:103960001F48204EFFF78CFD318881420ED1FFF7B2
:1039700047FE0BE04FF4DC450AE046F6851507E00C
:1039800046F6841504E04FF4CE4501E04FF4DA45E5
:10399000BDF82010144B88B22C0A1C54BDF82070BE
:1039A000BAB2561CE9B29955BDF82000841CA3B2E6
:1039B000B5F5104FADF8203008D00AA8FF21082235
:1039C0004FF47F4706F05EF8ADF822709DF81D2099
:1039D000BDF8206042F02000B1B205F089FA3DE662
:1039E0000408000800080008640C002010B5042139
:1039F00004460A48FFF744FD094B1A8882420BD15E
:103A000072B659682046884772B6064C002020607E
:103A1000FFF7F6FDFFF714FA10BD00BF0408000819
:103A200000080008A01500207047000010B5084CE1
:103A3000002120460A460B46FEF778FC054904F1B2
:103A400020000A220023BDE81040FEF76FBC00BF33
:103A5000A02B0108112C0108F8B506460F460025D9
:103A6000114800EB4510C469BCB1012C04D0022CF4
:103A700007D10E48394601E00C48314606F0BEF841
:103A80000A4C204606F018F9074982B2002301EBE0
:103A900045102146FEF74AFC01E0FEF713FF013511
:103AA000082DDDD1F8BD00BF542C01087C0D00208D
:103AB000FEE7704710B5044603F06CF84FF47A73D4
:103AC000B0FBF3F000F01AFF4FF0FF302146002268
:103AD00000F0C4FE002010BD014B1868704700BF05
:103AE000B815002038B50446FFF7F6FF0546FFF786
:103AF000F3FF401BA042FAD338BD70472DE9F041D7
:103B00000446002800F0DB80856D25B9FFF7F5FF3E
:103B1000E56584F8545023689A68910003D5986845
:103B200020F0005199609A68D20005D498687D4AC7
:103B300040F08051996012689868C00009D4A16D66
:103B400041F01002A265E06D40F00101E165012045
:103B500000E00020A26DD10600F1AD8099684A070F
:103B600000F1A980A56D45F00206A6659F6807F0E3
:103B70000302012A02D11968CD071BD46A4D6B4E8E
:103B8000AB4240F0A180B76807F00302012A40F081
:103B900099803668F10740F1958082F0010202F0C9
:103BA00001073FB1624E6268B16821F47C1545EAB5
:103BB0000207B7604FF4005898FAA8F6B6FA86F1F3
:103BC0004FF480355FFA81F895FAA5F2B2FA82F7E0
:103BD0004FF4602CFAB29CFAACF6B6FA86F15FFAB2
:103BE00081FCA56BE168A768E6692943394306FAB9
:103BF00008F7666A06FA02F6A26A3943551E05FA04
:103C00000CF231431143E26A012A03D0256B0DB156
:103C10002A431143DD68474A2A401143D9609A6814
:103C200012F00C0F31D14FF4804797FAA7F6B6FA8D
:103C300086F50221EFB291FAA1F2B2FA82F6A169F9
:103C4000626BDD68F6B202FA06F201FA07F111437F
:103C500025F48045E26B25F002052943012AD9604D
:103C60000FD1626C216C1D691143A26C41F00101FE
:103C70001143E26C25F4FF650A4325F005052A434C
:103C800002E0196921F001021A612169012906D1B6
:103C9000196B226A21F00F01013A0A4302E01A6B04
:103CA00022F00F021A63A36D23F0030242F0010118
:103CB000A165BDE8F081A36D43F01000A06501206F
:103CC000BDE8F0811C4D20E0AF68B34207F003016E
:103CD00013D1012902D12A68D7070BD4164DAE683B
:103CE00006F00301012901D0002103E02F68FE073F
:103CF000FAD5FFE7CD0713D406E0012906BF2D68EA
:103D000005F0010500255DB9084DA96801F0030221
:103D1000012A01D0002240E72D68E907FAD53CE7E7
:103D200001223AE7600C002000000450000104501A
:103D30000003045007C0F0FF000204507047000069
:103D4000F8B54569082D04460E4622D00268404B5E
:103D50009A4203D003F5807082426FD13D4B99683F
:103D6000C9066BD0986800F01F01052966D09868D5
:103D700000F01F01092961D0986800F44041B1F5B5
:103D8000004F5ED09B6803F44042B2F5404F58D0DC
:103D90000425FFF7A1FE074623681A6815420ED1D5
:103DA000721CFAD02EB9A16D41F00403A365032063
:103DB000F8BDFFF791FEC01BB042EDD9F3E72449EF
:103DC00018688B4200F0080013D0234A934210D0A9
:103DD000D2F8086116F01F0F02F5807209D09668BC
:103DE00006F01F06052E04D0926802F01F02092A71
:103DF00001D1DA6800E0CA68082D01D11D6003E036
:103E0000510401D404211960A16D41F40071A16530
:103E100008B90020F8BDDB6813F4406FF9D19304B2
:103E2000F7D4A06D20F48072A265A16D11F48050CA
:103E3000EFD1A36D43F00102A265F8BDD268D007AF
:103E4000A6D5A06D40F02001A1650120F8BD00BFFE
:103E50000000045000030450000204500368186C72
:103E600070470000F7B5044690F85400002301287D
:103E7000019300F0758123689A680120520784F845
:103E8000540000F16581486804284FF4F86518D89B
:103E90001F6B95FAA5F6B6FA86F2D6B295FAA5F595
:103EA000B5FA85F2D2B246431F2550430A6805FA97
:103EB00006F627EA060602FA00F246EA02051D6344
:103EC00050E0092819D85F6B95FAA5F6B6FA86F284
:103ED000D6B2053895FAA5F5B5FA85F2D2B24643C1
:103EE0001F2550430A6805FA06F627EA060602FA75
:103EF00000F246EA02055D6334E00E2819D89F6B94
:103F000095FAA5F6B6FA86F2D6B20A3895FAA5F56C
:103F1000B5FA85F2D2B246431F2550430A6805FA26
:103F200006F627EA060602FA00F246EA02059D6353
:103F300018E0DF6B95FAA5F6B6FA86F2D6B20F381E
:103F400095FAA5F5B5FA85F2D2B246431F2550433E
:103F50000A6805FA06F627EA060602FA00F246EAB9
:103F60000205DD63986810F00C0F40F0D0800A68FD
:103F7000092A4FF038001BD99E6990FAA0F7B7FACA
:103F800087F5EFB2A2F10A0590FAA0F0B0FA80F03E
:103F90004FF0070C6F430CFA07F726EA0707C0B289
:103FA0008E68454306FA05F647EA06059D6117E067
:103FB0005F6990FAA0F5B5FA85F6F6B290FAA0F02E
:103FC000B0FA80F5E8B25643072505FA06F68D6883
:103FD000504327EA060705FA00F547EA050058614D
:103FE000D8684D69C0F3C10708697E0005FA06F577
:103FF000461E4FF0F840032E43D8DFE806F00212C9
:1040000022321F6E90FAA0F0B0FA80F6F0B2B24EF3
:104010003E4046F00046354302FA00F22A431A6653
:1040200075E05F6E90FAA0F0B0FA80F6F0B2AA4E9A
:104030003E4046F00046354302FA00F22A435A66F3
:1040400065E09F6E90FAA0F0B0FA80F6F0B2A24E52
:104050003E4046F00046354302FA00F22A439A6693
:1040600055E0DF6E90FAA0F6B6FA86F09A4E3E4022
:10407000C0B246F00046354302FA00F245EA0200BB
:1040800044E01F6E90FAA0F5B5FA85F0C0B207F0D3
:10409000F84702FA00F5AF4203D1186E20F000474E
:1040A0001F665D6E4FF0F84090FAA0F7B7FA87F000
:1040B000C7B205F0F84502FA07F0854203D15F6EFA
:1040C00027F000455D669F6E4FF0F84090FAA0F52E
:1040D000B5FA85F0C0B207F0F84702FA00F5AF4232
:1040E00003D1986E20F000479F66D86E4FF0F845D8
:1040F00095FAA5F7B7FA87F5EDB200F0F84002FAA5
:1041000005F2904203D1DA6E22F00040D8669A6838
:1041100002F00300012802D11A68D00716D4CD6836
:104120000A68B5F1804F4FF001001BD0D3F8B050B2
:1041300000FA02F225EA0200C3F8B000086811286C
:104140004FD1664B9A6812F4000F58D0002003E05C
:10415000A16D41F02003A365002184F85410E4E030
:104160000220E2E0D3F8B06000FA02F03043082AFF
:10417000C3F8B0004FF0380519D99F6995FAA5F634
:10418000B6FA86F0C6B2093A95FAA5F5B5FA85F001
:10419000C0B2564307254243886805FA06F627EA67
:1041A000060600FA02F046EA00059D61C6E75F696F
:1041B00095FAA5F0B0FA80F6F6B2013295FAA5F5B7
:1041C000B5FA85F0C0B2564307254243886805FA20
:1041D00006F627EA060600FA02F046EA00055D61E7
:1041E000ACE7122804D13D4A916811F0807FACE71A
:1041F0000028ABD139498B6813F4800FA5E72368F9
:10420000996801F00302012A02D11968C9070BD489
:10421000334A3449934217D18A6802F00302012AD3
:1042200008D10968CA0705D5A26D42F02003A3652D
:10423000012091E72C4A916801F00301012948D13E
:104240001268D107F0D444E08B42916801F0030179
:1042500014D1012902D11268D2070BD422498A68ED
:1042600002F00302012A01D0002204E00968C90714
:10427000FAD500E00A46D107D6D407E0012906BFE7
:10428000126802F001020022002ACDD1154A91687D
:1042900001F00301012902D11268D207C4D4112808
:1042A00028D111498B427FF451AF0C490F4A8868DD
:1042B00040F400038B6011680D487822B1FBF0F0E8
:1042C00050430190019B002B3FF440AF0199481EE1
:1042D000F7E711281AD1E8E700F0FF0300030450C4
:1042E000000004500001045000020450600C002043
:1042F00040420F0012280BD10C4883427FF426AFB6
:104300000B48836843F0807282601FE71228F7D061
:1043100000287FF41BAF07498B427FF417AF044B93
:104320009A6842F48001996016E7FEBD00020450CD
:104330000003045000000450806D704703689A68C1
:1043400012F00C0F70B5044601D1002070BDD86882
:10435000800110D5E269012A0DD1A06901280AD196
:104360001F4A1968490602D4013AFAD12DE04026C5
:104370001E600C2101E060290BD09868420706D529
:104380009A68960703D49E6846F0100098600C293E
:1043900009D09D682D0706D59A68900703D49E68BA
:1043A00046F02000986060390C299ABF0D4B5D5C87
:1043B0000425FFF791FB0646236899680D42C4D097
:1043C000FFF78AFB821B052AF6D9A06D40F0100387
:1043D000A365E16D41F00102E265012070BD00BFFF
:1043E00001340A00542D010838B503689A68044660
:1043F00002F00300012804D11968C90701D5002083
:1044000038BD9868104A02409AB99D6845F001018C
:104410009960FFF761FB054623681868C207EED470
:104420009A6842F001019960FFF756FB431B022B8B
:10443000F2D9A06D40F01002A265E16D41F00103D8
:10444000E365012038BD00BF3F00008038B5036838
:10445000996811F00405044669D190F85420012AA6
:1044600065D0012380F85430FFF7BEFF00285BD1F0
:10447000A26DD10449BFE26DE06522F00602E2655B
:10448000A16D21F4706323F0010242F4807123686E
:10449000284AA165934208D002F500718B4204D0EE
:1044A00001F580729168CA0603D1A26D22F48011D1
:1044B000A16520491C228B421A6013D01E4A9342E8
:1044C00010D0D2F8085115F01F0F02F5807209D0F4
:1044D000956805F01F05052D04D0926802F01F02B3
:1044E000092A10D1DA68920105D5A16D21F4405254
:1044F00042F48051A1659968002284F8542041F06B
:1045000004029A6038BDA36D43F48012A265C968A5
:104510008B0105D5A36D23F4405242F48051A1656F
:10452000002384F8543038BD84F8545038BD02203C
:1045300038BD00BF000004500002045038B50368C5
:104540000446986800F00300012801D0002038BD1F
:104550001A68D207FAD5996801F00D02012A09D12B
:104560009D68032145F0020098601960FFF7B4FAD6
:10457000054608E0A36D43F01001A165E26D42F02D
:104580000103E36538BD22689368D807DED5FFF7DD
:10459000A3FA401B0228F6D9A16D41F01002A265D2
:1045A000E36D43F00100E065012038BD90F8543020
:1045B000012B10B5044616D0012180F854106C214F
:1045C000FFF7BCFE58B92046FFF7B8FF38B9A26D17
:1045D00022F4885323F0010141F00102A265002377
:1045E00084F8543010BD022010BD000010B5044600
:1045F000002800F0A680836D43F0020181656C21E4
:10460000FFF79CFE2068C26842F40013C360204696
:10461000FFF794FF2068416821F4FF6222F007034E
:1046200040F2FF7143600160826822F0A043836022
:10463000816841F000528260C3685A491940C160E4
:10464000C26842F00043C360016921F4FF6222F0B6
:1046500007030361416901F040424261836903F04D
:1046600078418161026A02F0F0230362416A01F03D
:10467000FF224262836A4C4A03F0FF218162036B8E
:104680001A400263416B494B484A0B404363816BBC
:104690000A408263C36B23F4FB6121F00702C2630B
:1046A000036E4349424A19400166436E1A4042660E
:1046B000816E3F4B3E4A0B408366C16E0A40C26624
:1046C000D0F8A030D90CCA04C0F8A020D0F8A4308B
:1046D000D90CCA04C0F8A420D0F8B030D90CCA0450
:1046E000C0F8B020D0F8B43023F07F11C0F8B41077
:1046F000826802F00303012B02D10168CA0715D4B6
:104700002C4A2D49904220D1886800F00303012BE8
:1047100019D10A68D00716D583F0010000F0010214
:1047200022B12648264B81680B4083602046FFF764
:1047300005FB0020E06520666066A06584F85400F3
:1047400010BD012010BD1F491FE08842906800F095
:10475000030012D1012802D11268D1070AD41949E5
:104760008B6803F00300012801D0002002E00A68F2
:10477000D207FAD5C00713D406E0012806BF106897
:1047800000F00100002058B90B498B6803F00303C7
:10479000012B01D00023BFE70968C907FAD5BBE7A1
:1047A0000123B9E704800080300882E0200882E01D
:1047B00000F0FF0300000450000104500003045007
:1047C000E01000FE0002045090F85430012B70B548
:1047D00004460E4637D0012580F85450FFF7AEFE50
:1047E000A16D40BB21F4885222F0020343F0020184
:1047F0002368A1659A6822F080410E439E609A6802
:1048000042F0004199604FF47A42996800290BDA2E
:10481000013AFAD1A06D84F8542020F0120141F041
:104820001003A365012070BDA36D23F0030242F0C5
:104830000101A16503E041F01000A06528460023B6
:1048400084F8543070BD022070BD0000024BD8685F
:10485000C0F30220704700BF00ED00E070B51646BF
:1048600004460D46FFF7F2FF00F00700C0F1070213
:10487000031D042A28BF0422062B01D9033800E0B7
:104880000020012303FA00F103FA02F35A1E013952
:1048900015400E4005FA00F046EA0003002C4FEAEE
:1048A000031106DA074B04F00F04C8B2E1180876CA
:1048B00070BD04F1604404F56144CAB284F8002379
:1048C00070BD00BFFCEC00E04209012300F01F00B6
:1048D00003FA00F1014840F82210704700E100E0BF
:1048E0004209012300F01F0003FA00F120320248C0
:1048F00040F82210704700BF00E100E0B0F1807F77
:104900000BD2074B074A0138F021586082F8231078
:10491000002007219860196070470120704700BF90
:1049200010E000E000ED00E0364B1A6912F0020FD3
:10493000184604D0344B596841F001025A600069AE
:10494000030704D5304B596841F002025A602D48E4
:10495000036913F0100F024604D02B48416841F060
:10496000040343601269900604D52748416841F06A
:10497000080343602348026912F0400F04D0224B21
:10498000596841F010025A600069010604D51E4BB7
:10499000596841F020025A601A48036913F4807F75
:1049A000024604D01848416841F040034360126950
:1049B000920504D51448416841F0800343601148D2
:1049C000026912F4804F04D00F4B596841F4807291
:1049D0005A600069030404D50B4B596841F4007216
:1049E0005A6008488369002B04DA074A516841F489
:1049F0008063536082694CF2FA3342F00041816176
:104A00000361704700200240BC150020044910B526
:104A10004C6944F001044C610260436010BD00BF6A
:104A200000200240094B5A6970B542F480250C46BB
:104A30005D6172B601F58075461AA619F4E8022385
:104A4000AC42C6E90023F7D162B670BD0020024037
:104A5000064B5A69002A06DA054800F18831986049
:104A60009960002070470120704700BF002002407D
:104A700023016745034B5A6942F00040586100200A
:104A8000704700BF0020024038B50446FFF724F805
:104A900005191E4B1A69D00307D5631CF9D0FFF71F
:104AA0001BF8A842F5D3032038BD186981071FD42D
:104AB00019690A071CD41A69D00619D41869810625
:104AC00016D419694A0613D41A69100610D4186945
:104AD000C1050DD419698A050AD41B695B0407D482
:104AE0000A490A6912F4004002D18B69002B03DAEB
:104AF000FFF71AFF012038BD0A6912F0010302D046
:104B000001220A6138BD184638BD00BF00200240AE
:104B10002DE9704F1C4E9B463378012B0546894684
:104B200092462ED04FF001084CF2503086F80080AB
:104B3000FFF7AAFF0446FCB9746035B948465246EF
:104B40005B46FFF763FF44460CE0681E012801D96D
:104B5000002407E048465146FFF764FF022DF7D1D5
:104B60004FF480244CF25030FFF78EFF24B10749F8
:104B70004A6922EA04044C61034B00211970BDE824
:104B8000708F0220BDE8708FBC150020002002400D
:104B900010F0010F084B03D05A6942F0040159612B
:104BA000820703D5586940F400425A61596941F4BB
:104BB00080305861704700BF002002400C4B5A699A
:104BC00011F0010F14BF22F4006242F400625A6136
:104BD000596921F4FF6242EAC0005861596941F005
:104BE00002025A61586940F480315961704700BF30
:104BF00000200240104B1A6891050BD5186820F46C
:104C0000007119601A6842F400601860196841F474
:104C100000721A60084B186842050BD5196821F418
:104C200080621A60186840F4805119601A6842F472
:104C300080601860704700BF00200240F8B5254E24
:104C40003378012B05460F4640D0012030704CF2DE
:104C50005030FFF719FF0446002833D129687060EF
:104C600001290FD16868FFF793FF4CF25030FFF72E
:104C70000BFF04461848436923F4004121F0040265
:104C800042611DE04FF0FF323A60AE68E868AB6801
:104C9000C1188E4214D269683046FFF78FFF4CF27C
:104CA0005030FFF7F1FE0C4B5A6922F4FF6121F0FE
:104CB00002025A6110B13E60044601E00136E5E7A8
:104CC000FFF798FF034B0020187000E002242046F5
:104CD000F8BD00BFBC150020002002402DE9F347BD
:104CE000D1F800C000223CFA02F300F0CF80012688
:104CF00006FA02F616EA0C0500F0C6804B68022B95
:104D000001D0122B14D1D708083702F0070850F849
:104D100027404FEA880A4FF00F0909FA0AF824EAF7
:104D200008090C6904FA0AFA49EA0A0440F827401B
:104D300054004FF00308076808FA04F96FEA0908FD
:104D400003F0030908EA070709FA04FA47EA0A0721
:104D500007605F1E012F03D9112B01D0122B12D136
:104D6000876808EA070ACF6807FA04F74AEA0707DC
:104D70008760476827EA060AC3F3001707FA02F7B5
:104D80004AEA07074760B9F1030F08D1C76A27EA63
:104D90000606C3F3C00707FA02F73E43C662C668B9
:104DA00008EA06088E6806FA04F648EA060413F0D4
:104DB000805FC46068D0364C276E47F001062666D7
:104DC000246E04F0010701979608B71C019C314C32
:104DD00054F8274002F00307BF004FF00F0808FA0D
:104DE00007F8B0F1904F24EA080819D02A4CA042E5
:104DF00018D004F58064A04216D004F58064A04267
:104E000014D004F58064A04212D004F58064A0425E
:104E100010D004F58064A04214BF072406240AE0E1
:104E2000002408E0012406E0022404E0032402E058
:104E3000042400E00524023604FA07F7154C47EA7B
:104E4000080744F82670154E3768EC43274013F4E2
:104E5000803F18BF2F43376077689E0307EA040737
:104E60000E4E48BF2F437760B76813F4801F07EAE0
:104E7000040718BF2F43B760F6689B0204EA0604D4
:104E8000064B48BF2C43DC6001322CE7BDE8FC87B1
:104E900000100240000001400004004800040140EE
:104EA000036919420CBF0020012070470AB18161DB
:104EB000704781627047000030B504680648656835
:104EC000890543EA915328400399034343EA0100CB
:104ED00040EA0242626030BD009800FC2DE9F041DA
:104EE00004460E4690461D46FEF7F6FD0746B8F10D
:104EF000000F2DD120688169CB4323F07F4222F43B
:104F00007E01314212D0691CF5D09DB1FEF7E4FD5F
:104F1000C01BA842EED90DE06B1C0AD19369D8439F
:104F200020F07F4121F47E033342F5D00020BDE81C
:104F3000F08145B90123002284F8353084F834200B
:104F40000320BDE8F081FEF7C7FDC21BAA42F1D8DD
:104F50002268E3E770B504460D46FEF7BDFD236801
:104F60009A69064612F0100038D094F835001228DD
:104F700007D094F83510522903D094F83520622ACE
:104F800012D1586881010FD4596841F480425A60A7
:104F90000AE09869800611D46A1CFAD035B1FEF790
:104FA0009BFD801BA84201D82368F2E70121002362
:104FB00084F8351084F83430032070BD102120228D
:104FC000D961DA615868064901405960012004231B
:104FD0000022A36384F8342084F8350070BD00BF3C
:104FE00000E800FE70B504460D46FEF775FD064666
:104FF00023689869820617D420462946FFF7AAFF3E
:10500000A0B95DB9A26B012042F020030021A36387
:1050100084F8341084F83500032070BDFEF75CFD81
:10502000811BA942E4D9EDE7002070BD012070BDCD
:10503000704710B50446002842D090F835301BB9AF
:1050400080F83430FFF7F4FF2368022084F835003D
:105050001A68606822F0010120F0706219601A611C
:105060009968A26821F4004098603AB1E16801298A
:105070000CBF42F4004242F404429A60E068022805
:1050800004BF4FF4006058605A6842F0007141F468
:105090000040226961695860A069114341EA00211A
:1050A000E269206AD96040EA02011960186840F09C
:1050B00001021A6000200123A06384F8353010BD7E
:1050C000012010BD2DE9F7431D4690F83530DDF87D
:1050D0002890012B0446884617465AD10AB9012068
:1050E00058E0002DFBD00268926912F4004250D1C2
:1050F00090F83460012E4CD080F8343022264FF4E2
:10510000105380F83560FF2D8263009321D8EAB2F6
:105110004FF00073FFF7D0FE2E46204604210022F8
:105120004B46FFF7DBFE28BB2068416A013D013E8C
:1051300007F8011BADB213D1A5B12046802132463C
:105140004B46FFF7CBFEA8B9009620464146FF2DFF
:10515000DCE7FF224FF08073FFF7AEFEFF26DCE7AF
:10516000002DDAD120461921FFF73CFF20B1A06BBA
:105170000428B4D003200DE023682022DA615968A6
:10518000054A0A405A60012384F8353084F8340017
:1051900000E00220BDE8FE8300E800FE90F8353014
:1051A000022B30D090F83530122B2AD090F83520D1
:1051B000222A26D090F83530322B22D090F8352094
:1051C000422A4FF002031ED090F83420012A1AD050
:1051D00080F8353003681A6822F001021A601A68F4
:1051E00022F480521A601A6811431960196841F05C
:1051F00001021A60012380F83530002380F8343032
:1052000001E0022070471846704770B504468AB026
:10521000002870D090F881331BB980F8803303F0F8
:105220003FFB2546032084F8810355F8100B02F05C
:10523000F1FE0FCD6E460FC60FCD0FC695E80300E9
:1052400086E80300211D0EC9206802F0C5FE00217A
:10525000206802F0E5FE65682346264600211C36DC
:10526000A9420AD000220120317771847077F27749
:105270007262B26232630131F1E700221C33AA424A
:1052800015D0002183F8C0215A8483F8C11183F816
:10529000C311C3F8C811C3F8CC11C3F8D4112068E6
:1052A00002F1400600EB860001324160E6E704F1BE
:1052B00010060FCE6D460FC50FCE0FC596E8030042
:1052C00085E80300221D0ECA206802F0E9FE606A2C
:1052D0000123012884F8813302D1204600F0D0FB5D
:1052E000A16A012902D1204600F0DDFB206803F00D
:1052F0005EFA002000E001200AB070BD90F8803313
:10530000012B10B504460CD0012084F880032068DE
:1053100003F041FA206802F077FE002084F8800351
:1053200010BD022010BD90F88033012B10B504464B
:1053300009D0012084F88003206803F01CFA0020C3
:1053400084F8800310BD022010BD70B50546C8B2B8
:1053500001F07F044FF01C0610F0800F06FB045490
:1053600001D0383401E004F5EE7401F07F01C0098A
:1053700021706070A260E37000B1E180022B01D166
:105380000023237195F88023012A0AD0012185F892
:1053900080132868214602F01DFF002085F8800355
:1053A00070BD022070BDCAB210B501F07F03044683
:1053B00012F0800F4FF01C0000FB034301D0383384
:1053C00001E003F5EE73D20901F07F0119705A7004
:1053D00094F8800301280AD0012184F88013206802
:1053E000194602F03BFF002084F8800310BD022024
:1053F00010BD38B501F07F0104461C2505FB0145B1
:10540000104605F5EE7285F8DC11536100235370E8
:1054100093612369D060012B08BF106194F8800369
:10542000012805F5EC7510D0012084F88003DBB26B
:10543000204619B9216802F04CFF02E0216803F010
:1054400013F8002084F8800338BD022038BD38B539
:1054500001F07F011C254D43044638351046621982
:105460006155536100239361012353702369D06018
:10547000012B08BF106194F88003012810D001208F
:1054800084F88003DBB2204619B9216802F021FFBD
:1054900002E0216802F0E8FF002084F8800338BDB4
:1054A000022038BD38B50446C8B210F0800F4FF066
:1054B0001C0305D001F07F0503FB0543383303E0EF
:1054C00003FB014202F5EE73012201F07F05C109E1
:1054D0009A701D70597094F88003904210D084F82F
:1054E00080232068194603F0EEF82DB92068217C4E
:1054F00004F5617203F0B4F9002084F8800338BD2C
:10550000022038BDCAB212F0800F38B504464FF001
:105510001C0305D001F07F0503FB0503383303E0CE
:1055200003FB010000F5EE730025D20901F07F01B5
:105530009D7019705A7094F8800301280AD00121D7
:1055400084F880132068194603F0E8F884F8805343
:10555000284638BD022038BD2DE9F3471C2404FB42
:105560000104383406686569A3698046A068ED1AAD
:10557000854228BF05460F4605F10309042106F5BB
:10558000106A99FBF1F90AEB471ADAF8182093B27E
:105590004B450BD2002D29DCD6F83438012202FA13
:1055A00007F723EA0707C6F834781FE0A0696169A6
:1055B0008842EFD20029EDD00D1AA06898F810307B
:1055C000854228BF0546009305F1030C04219CFB8E
:1055D000F1F9FAB2E168ABB2304602F032FFE268AC
:1055E000A16950194B19E060A361CEE70020BDE826
:1055F000FC872DE9F74F05680446284603F010F9AB
:10560000002840F01682206803F0DDF8002800F042
:105610001082206803F0D7F8860704D523685A69FA
:1056200002F002005861206803F0CDF810F4002168
:105630005DD0206803F0CBF805F5306A8146A046BE
:1056400057460026B9F1000F52D019F0010F47D08C
:10565000F3B219462068019303F0C8F810F0010F67
:105660008346019B2FD00120B860DAF808100804A7
:1056700021D42269012A0ED13869D8F8E42120F01A
:105680007F4121F47800111AD8F8E801C8F8F41124
:105690008218C8F8E8211946204603F057F9216915
:1056A000012908D13EB9D4F8F03123B9206804F5B6
:1056B000617203F0D5F8DAF8081041F4004040F0C8
:1056C0002002CAF808201BF0080F04D0204603F07F
:1056D00029F90823BB601BF0100F01D01021B9601D
:1056E00001364FEA5909203708F11C08AAE70E468F
:1056F000206803F068F841035CD5206803F06EF879
:1057000005F510678246A1460026BAF1000F51D078
:105710001AF0010F47D05FFA86FB2068594603F064
:105720006EF810F0010F804622D0D5F834082269B7
:10573000012303FA06F120EA0100012AC5F8340822
:10574000BB6006D1D9F84400D9F84030C118C9F877
:1057500044105946204603F025F92169012907D153
:1057600036B9E26C22B9206804F5617203F078F86A
:1057700018F0080F01D00820B86018F0100F01D001
:105780001023BB6018F0400F01D04021B96018F021
:10579000020F01D00222BA6018F0800F03D0204619
:1057A0003146FFF7D9FE01364FEA5A0A203709F190
:1057B0001C09AAE7206803F006F8002818DAD5F8D3
:1057C000043894F8B40323F001020128C5F8042832
:1057D00006D1002184F8B413204603F033FA02E026
:1057E000204603F057F921684B6903F000424A61F3
:1057F000206802F0E8FF02050BD5D5F80808C307BA
:1058000002D5204603F022F921684B6903F40062B7
:105810004A61206802F0D7FF000116D5206894F88D
:10582000B423416901F0006343615AB9406D01211D
:10583000C0F3830384F8B413C4F8B833204603F0EC
:1058400001FA02E0204603F001F9206802F0BBFFF4
:10585000C1044CD5D5F80418206821F00102C5F820
:105860000428002102F0F2FB606805F5006705F5E9
:1058700010630022824206D0FF2199600132C3F8F2
:1058800008122033F6E74FF0FF30C5F81808D5F8B6
:105890001C38226B43F00111C5F81C1862B1D5F811
:1058A000840840F00B03C5F88438D5F8441841F05B
:1058B0000B02C5F8442809E0D5F8140840F00B03A2
:1058C000C5F81438396941F00B023A61D5F800087F
:1058D000217C20F4FE6304F56172C5F8003820686D
:1058E00002F0BEFF21684A6902F4805048612068D6
:1058F00002F069FF820417D5206802F095FF236843
:10590000D96821F47052DA60DA680320E06040213F
:1059100042F4A0506161D860204603F07FF823680C
:10592000596901F400525A61206802F04CFFC30625
:1059300039D52768B86920F01003BB61D5F82080FD
:105940001C2208F00F01C8F3434002FB0147022864
:1059500007F5EE7714D147F6F07208EA0200E8B1D5
:105960004FEA1018F9684246284602F09BFEFB6891
:10597000BA6903EB080102EB0800F960B8610DE0B9
:1059800006280BD104F561712846082202F08AFE30
:10599000BB69C8F30A1803EB0801B9612368996968
:1059A00041F010029A61206802F00DFF000707D550
:1059B000204603F021F82068436903F008014161A3
:1059C000206802F000FFC10208D52046F1B203F0C2
:1059D00093F82068426902F480134361206802F062
:1059E000F2FE820208D52046F1B203F07BF821686E
:1059F000486900F400124A61206802F0E4FE4300A6
:105A000007D5204603F082F82368596901F08040E9
:105A10005861206802F0D7FE40070AD525686D68F6
:105A2000690702D5204603F075F823685A681543C4
:105A30005D60BDE8FE8F036830B55C6A19B944EA61
:105A400002449C6216E0986A04EB104400204D1E4C
:105A5000A84209DA00F1400503EB850501306D68C5
:105A6000C0B204EB1544F2E73F3103EB810344EA93
:105A700002445C60002030BD03680020596270471A
:105A8000036802460121C0F8BC13002082F8B40369
:105A90009A6942F0006199615A6D42F0805141F07B
:105AA00003025A65704703680122C0F8C023986B4F
:105AB00040F400319963002070470000024B1868E1
:105AC00000F4C060704700BF00700040174B1A68B8
:105AD000B0F5007F02F4C0601DD1B0F5007F23D087
:105AE000196821F4C06242F400701860104B114A2A
:105AF00019683220B1FBF2F343430C4A23B15169D8
:105B0000490501D5013BF8E7536913F4806F0CBFD9
:105B1000002003207047B0F5806F05D0196821F48C
:105B2000C06242F48060186000207047007000403E
:105B3000D815002040420F00024B5A6842F48060A2
:105B4000586070470070004037B51E4CA36DDA00F6
:105B5000054602D5FFF7B2FF0EE0A06D40F0805180
:105B6000A165A26D02F080530193019BFFF7A6FF90
:105B7000A16D21F08052A265B0F5007F05D1802D86
:105B80000CD9A02D0CD902210DE0802D0AD8FAD015
:105B9000B5F17003584250EB030104E0002102E02C
:105BA000012100E00321084B1A6822F0070041EAB6
:105BB00000021A601B6803F00700401A18BF01209A
:105BC0003EBD00BF0010024000200240036873B5D4
:105BD0000446D80640F1FC80AF48826812F00C0FF2
:105BE0006DD1022292FAA2F1B1FA81F3D9B241F059
:105BF00020035909012901D1006810E092FAA2F3AB
:105C0000B3FA83F192FAA2F2B2FA82F1CBB243F084
:105C10002002510903290CBFD0F89400C069022367
:105C200093FAA3F2B2FA82F101F01F0320FA03F013
:105C3000C10704D5A06910B9012000F00BBD964B37
:105C4000206A1A68120703D51A6802F0F00104E00E
:105C5000D3F8941001F470621109884217D9FFF744
:105C600073FF0028E8D18C48036843F00801016005
:105C70000268216A22F0F00343EA010202604368ED
:105C8000E26923F47F4141EA0223436013E019688B
:105C900041F008021A60196821F0F00202431A600C
:105CA0005968E26921F47F4141EA02225A60FFF714
:105CB0004BFF0028C0D10120FDF7FCFE88E0A16960
:105CC00000294DD0056845F001020260FDF704FF90
:105CD0000546022090FAA0F3B3FA83F1CAB242F06B
:105CE00020035909012902D16B490B6811E090FA90
:105CF000A0F2B2FA82F290FAA0F0B0FA80F3D9B230
:105D000041F02002644B500903280CBFD3F89430B3
:105D1000DB69022292FAA2F0B0FA80F101F01F02D0
:105D200023FA02F3D90707D4FDF7D6FE431B642BF1
:105D3000CFD9032000F08EBC574B186840F0080103
:105D400019601A68216A22F0F00040EA01021A6024
:105D50005868E26920F47F4141EA0220586037E048
:105D6000056825F001030360FDF7B6FE0546022035
:105D700090FAA0F2B2FA82F1CBB243F020025109BC
:105D8000012902D1444A116811E090FAA0F3B3FA54
:105D900083F290FAA0F0B0FA80F2D1B241F0200381
:105DA00058093D4903280CBFD1F89410C969022352
:105DB00093FAA3F0B0FA80F202F01F0321FA03F184
:105DC000CA0705D5FDF788FE411B6429CFD9B0E786
:105DD0002068C30704D42168880700F11681DEE13A
:105DE0002D498A6802F00C03082B09D0886800F05E
:105DF0000C020C2A35D1C96801F00303032B30D102
:105E00004FF4003191FAA1F0B0FA80F2D3B243F02E
:105E100020004209012A02D11F4A106811E091FABC
:105E2000A1F3B3FA83F291FAA1F1B1FA81F0C2B20F
:105E300042F020031848590903290CBFD0F89400F8
:105E4000C0694FF4003393FAA3F1B1FA81F202F082
:105E50001F0320FA03F0C107BDD560680028BAD13E
:105E6000EAE60D4D286820F480322A60296821F482
:105E700080232B60FDF730FE05464FF4003090FA8A
:105E8000A0F2B2FA82F1CBB243F02002510901290B
:105E900004D1014A116813E00010024090FAA0F307
:105EA000B3FA83F290FAA0F0B0FA80F2D1B241F0E6
:105EB00020035809BD4903280CBFD1F89410C969C3
:105EC0004FF4003393FAA3F0B0FA80F202F01F030C
:105ED00021FA03F1CA0707D5FDF7FEFD41F2883329
:105EE000421B9A42C9D924E76568B048B5F5803F9E
:105EF0000AD0B5F5A02F0CD1056825F480320260D8
:105F0000016841F480230360056845F48032026033
:105F100009E0016821F480320260036823F48021E3
:105F20000160002D38D0FDF7D7FD05464FF4003055
:105F300090FAA0F1B1FA81F3DAB242F020014B09F4
:105F4000012B02D1994B196811E090FAA0F2B2FA34
:105F500082F290FAA0F0B0FA80F1CBB243F02002C6
:105F60009249500903280CBFD1F89410C9694FF425
:105F7000003292FAA2F0B0FA80F303F01F0221FA85
:105F800002F1CB073FF527AFFDF7A6FD411B41F21C
:105F900088308142CAD9CCE6FDF79EFD05464FF414
:105FA000003090FAA0F2B2FA82F3D9B241F02002A6
:105FB0005309012B02D17D4A136811E090FAA0F138
:105FC000B1FA81F290FAA0F0B0FA80F2D3B243F0C5
:105FD00020014809754B03280CBFD3F89430DB69C6
:105FE0004FF4003191FAA1F0B0FA80F202F01F01F3
:105FF00023FA01F3D8077FF5EEAEFDF76DFD41F210
:106000008833401B9842CAD993E6684B9A6802F0DD
:106010000C00042809D0996801F00C020C2A35D133
:10602000DB6803F00300022830D14FF4806393FA59
:10603000A3F2B2FA82F0C1B241F020025009012865
:1060400002D15A4A106811E093FAA3F1B1FA81F231
:1060500093FAA3F3B3FA83F2D0B240F020014B09D4
:106060005248032B0CBFD0F89400C0694FF48061F4
:1060700091FAA1F3B3FA83F202F01F0120FA01F0C2
:10608000C10741D5E06800283ED1D5E5E56847491C
:10609000002D4AD00D6845F480700860FDF71CFDA6
:1060A00005464FF4806393FAA3F2B2FA82F1C8B2C4
:1060B00040F020025109012902D13C4A116811E047
:1060C00093FAA3F0B0FA80F293FAA3F3B3FA83F24F
:1060D000D1B241F0200043093449032B0CBFD1F861
:1060E0009410C9694FF4806090FAA0F3B3FA83F278
:1060F00002F01F0021FA00F1CA0705D4FDF7ECFCFD
:10610000411B6429CDD914E6284B4FF0F852596849
:1061100092FAA2F0B0FA80F2D0B2226921F0F851DE
:1061200002FA00F20A435A6039E00A6822F48073E6
:106130000B60FDF7D1FC05464FF4806090FAA0F1AA
:10614000B1FA81F2D3B243F020014A09012A02D107
:10615000164A116811E090FAA0F3B3FA83F290FAAC
:10616000A0F0B0FA80F1CAB242F020030F495809FA
:1061700003280CBFD1F89410C9694FF4806393FAD7
:10618000A3F0B0FA80F202F01F0321FA03F1CB076B
:1061900005D5FDF7A1FC411B6429CDD9C9E52368CC
:1061A000180705D42268510765D46CE1001002403D
:1061B0006569B7487DB3D0F8945045F00103C0F845
:1061C0009430FDF789FC0546022191FAA1F0B0FA5E
:1061D00080F291FAA1F2B2FA82F291FAA1F3B3FA43
:1061E00083F0C2B242F060035809A94A03280CBFE9
:1061F000D2F89420D26991FAA1F1B1FA81F303F0B7
:106200001F0022FA00F2D207CCD4FDF765FC431B35
:10621000642BD9D98DE5D0F8942022F00101C0F883
:106220009410FDF759FC0546022393FAA3F0B0FA47
:1062300080F293FAA3F2B2FA82F293FAA3F1B1FADE
:1062400081F0C2B242F060014809914A03280CBFB4
:10625000D2F89420D26993FAA3F3B3FA83F101F050
:106260001F0022FA00F2D3079CD5FDF735FC421B34
:10627000642AD9D95DE5864EB56DED000AD4B16DBD
:1062800041F08053B365B06D00F080520192019BE4
:10629000012500E000257F4E3168C80510D57C4EF1
:1062A000D6F8903023F00100C6F89000D6F8902080
:1062B00022F00401C6F89010FDF70EFC064631E00E
:1062C000336843F480703060FDF706FC0646714A7F
:1062D0001168C905E3D4FDF7FFFB821B642AF6D9D8
:1062E00027E593FAA3F3B3FA83F0C2B242F0400178
:1062F00067484B09032B0CBFD0F89400C0690221FA
:1063000091FAA1F3B3FA83F202F01F0120FA01F02F
:10631000C2071AD5FDF7E0FB41F28831801B8842A5
:106320003FF607AD022393FAA3F0B0FA80F293FA96
:10633000A3F2B2FA82F1C8B240F040025109994288
:10634000CFD1534AD2F89000D9E7A6685048012E21
:106350001ED07EB9D0F8902022F00101C0F8901034
:10636000D0F8906026F00403C0F89030FDF7B4FB3D
:10637000064655E0D0F8903023F00102C0F8902096
:10638000052ED0F8901008D141F00403C0F89030E9
:10639000D0F8906046F0010601E021F00406C0F854
:1063A0009060FDF799FB0646022393FAA3F2B2FA36
:1063B00082F293FAA3F1B1FA81F0C2B242F0400145
:1063C0004809984203D1324AD2F890100DE093FA6E
:1063D000A3F3B3FA83F2D1B241F0400043092C4950
:1063E000032B0CBFD1F89410C969022090FAA0F3D6
:1063F000B3FA83F202F01F0021FA00F1CB072CD48C
:10640000FDF76AFB41F28833821B9A42CCD990E4B3
:10641000FDF762FB811B41F2883081423FF689AC77
:10642000022090FAA0F2B2FA82F290FAA0F1B1FA48
:1064300081F3DAB242F040014B09834214D1144A8D
:10644000D2F89010022393FAA3F0B0FA80F202F08F
:106450001F0321FA03F1C807DAD4A5B10C498B6DEB
:1064600023F080528A650EE090FAA0F0B0FA80F234
:10647000D1B241F040035809054903280CBFD1F8B7
:106480009410C969DEE7606A30B90020E2E000BF1D
:1064900000100240007000406F4B996801F00C0240
:1064A0000C2A3FF4C9AB0228186820F080711960EB
:1064B00040F08E80FDF710FB05464FF0007393FA15
:1064C000A3F2B2FA82F1C8B240F0200251090129C8
:1064D00002D1614A116811E093FAA3F0B0FA80F298
:1064E00093FAA3F3B3FA83F2D1B241F02000430947
:1064F0005949032B0CBFD1F89410C9694FF00070B3
:1065000090FAA0F3B3FA83F202F01F0021FA00F12F
:10651000C90705D5FDF7E0FA411B6429CDD908E488
:10652000216BA36AE26A43EA0120636B511E40EAD1
:1065300001101A0940EA4241A06BE46B43085A1E5D
:106540006008431E41EA425141EA43624249CA603F
:106550000C6844F080700860CB6843F08072CA60B9
:10656000FDF7BAFA04464FF0007191FAA1F0B0FAC3
:1065700080F3DAB242F020004309012B02D1364BFE
:10658000186811E091FAA1F2B2FA82F291FAA1F13F
:10659000B1FA81F0C3B243F020022F485109032918
:1065A0000CBFD0F89400C0694FF0007292FAA2F1CB
:1065B000B1FA81F303F01F0220FA02F0C2073FF59F
:1065C00064AFFDF789FA001B6428CCD9FFF7B1BB93
:1065D000DC6824F00302DA60D86820F0887121F4C6
:1065E0008034DC60FDF778FA04464FF0007393FACC
:1065F000A3F2B2FA82F0C1B241F0200250090128A0
:1066000002D1154A106811E093FAA3F1B1FA81F2B0
:1066100093FAA3F3B3FA83F2D0B240F020014B090E
:106620000D48032B0CBFD0F89400C0694FF00071E7
:1066300091FAA1F3B3FA83F202F01F0120FA01F0FC
:10664000C3077FF522AFFDF747FA001B6428CCD9BA
:10665000FFF76FBB7CBD00BF00100240B14B1A6852
:1066600070B5044602F0070081420D4640F20E81EB
:106670001968042D9CBF21F00701294319601B688C
:1066800003F00702AA4201D0012070BD23689A07D7
:1066900006D5A54AA168906820F0F00008439060F4
:1066A000D8070BD42368590740F1FB819E4A9168B3
:1066B00021F4E060E16808439060F2E16368022B36
:1066C00023D14FF4003090FAA0F2B2FA82F1CAB2AC
:1066D00042F020014A09012A02D19349086811E0D9
:1066E00090FAA0F1B1FA81F190FAA0F0B0FA80F23C
:1066F000D1B241F0200042098B48032A0CBFD0F8E8
:106700009400C0694FF400316BE0032B23D14FF0AC
:10671000007090FAA0F2B2FA82F1CAB242F02001FF
:106720004A09012A02D18049086811E090FAA0F1D3
:10673000B1FA81F190FAA0F0B0FA80F2D1B241F052
:10674000200042097848032A0CBFD0F89400C069A1
:106750004FF0007145E00BBB022090FAA0F2B2FAB4
:1067600082F1CAB242F020014A09012A02D16E49DF
:10677000086811E090FAA0F1B1FA81F190FAA0F066
:10678000B0FA80F2D1B241F0200042096648032AF3
:106790000CBFD0F89400C069022122E04FF480625F
:1067A00092FAA2F1B1FA81F0C1B241F020004109A0
:1067B000012902D15C4A106811E092FAA2F0B0FA05
:1067C00080F192FAA2F2B2FA82F1C8B240F020024D
:1067D0005109554803290CBFD0F89400C0694FF403
:1067E000806191FAA1F2B2FA82F101F01F0220FA5F
:1067F00002F0C2077FF548AF4B4DA86820F00301B7
:106800000B43AB60FDF768F96268022A05460FD1B9
:10681000454B9A6802F00C0008283FF443AFFDF79F
:106820005BF941F28833411B9942F1D9032070BDD5
:10683000032A0ED13C498B6803F00C020C2A3FF46A
:1068400031AFFDF749F941F28831401B8842F1D957
:10685000ECE76AB13448816801F00C03042B0DD1D8
:1068600020E7FDF739F9421B41F288308242DDD83A
:106870002D498B6813F00C0FF3D113E7FDF72CF9BA
:10688000421B41F288308242E4D9CFE7236898075F
:1068900006D5254A916821F0F000A1680843906070
:1068A000D90709D4042D1F4900F2F2800A6822F0AA
